:020000040800F2
:10000000E8070020AD010008B32D0008AB29000867
:10001000B12D00087B150008A53300080000000082
:10002000000000000000000000000000B92E0008E1
:10003000ED16000800000000B52D0008E92E0008AC
:10004000C7010008C7010008C7010008C701000870
:10005000C7010008C7010008C7010008C701000860
:10006000C7010008C7010008C7010008C701000850
:10007000C7010008C7010008C7010008C701000840
:100080007D150008C7010008C7010008C701000866
:10009000C7010008C7010008C7010008C701000820
:1000A000C7010008C7010008C7010008C701000810
:1000B000C7010008C7010008C7010008C701000800
:1000C000C7010008C7010008C7010008C7010008F0
:1000D000C7010008C7010008C7010008C7010008E0
:1000E000C7010008C7010008C701000800F002F8B6
:1000F00000F04DF80AA090E8000C82448344AAF175
:100100000107DA4501D100F042F8AFF2090EBAE872
:100110000F0013F0010F18BFFB1A43F0010318473B
:100120004458000064580000103A24BF78C878C1D1
:10013000FAD8520724BF30C830C144BF04680C60ED
:10014000704700000023002400250026103A28BF35
:1001500078C1FBD8520728BF30C148BF0B60704739
:10016000662905F0BE82642900F0B080732900F092
:10017000E884002070471FB500F0FAFC040000205E
:10018000002104F0D5F9E0601FBD10B510BD00F0EE
:10019000F7FD1146FFF7EFFF03F0AEFB00F015FE91
:1001A00003B4FFF7F2FF03BC00F018FE09488047D4
:1001B00009480047FEE7FEE7FEE7FEE7FEE7FEE749
:1001C000FEE7FEE7FEE7FEE704480549054A064B61
:1001D000704700004B2F0008ED000008E8010020E8
:1001E000E8070020E8030020E80300200FB40449DA
:1001F00010B503AA029800F0A9FC10BC5DF814FB2E
:10020000080000200FB41CB5074B06AA7B446946C2
:100210000090059800F06BFC0020694600F07AFC25
:100220001CBC5DF814FB00000509000070B5044615
:1002300085690068C10601D5302600E02026C00788
:1002400007D070BDD4E9012130469047206A401C98
:1002500020626D1EF6D570BD70B5044685690078C4
:10026000C00707D170BDD4E9012120209047206A42
:10027000401C20626D1EF6D570BD70B50C4605465B
:10028000012A05D02878800600D5EA69002302E01B
:10029000012305E05B1C934202D2E05C0028F9D107
:1002A000A869E618C01AA861286A18442862284676
:1002B000FFF7BCFF04E0D5E9012114F8010B9047DA
:1002C000B442F8D32846FFF7C7FF70BD2DE9F041CF
:1002D0000646002410687529314616A510D0AFF3E4
:1002E0000080002802DA404213A507E031688A073F
:1002F00001D512A502E0490704D511A5012401E0AA
:10030000AFF3008000210A2206F1240709E0B0FBC8
:10031000F2FCB0FBF2F302FB1C00303078541846BC
:10032000491C0028F3D123462A463046BDE8F04157
:1003300000F070B9000000002D0000002B0000004C
:10034000200000002DE9F0474FF0000A89460446DE
:10035000C0F820A02046E1688847002876D02528EC
:1003600006D0D4E901219047206A401C2062F1E7C1
:10037000E168204600258847C4F81CA006460027EF
:10038000C4F818A02A2E09D0304603F0A5F838B3D7
:1003900004EB8708303EC8F8186019E059F8041BD0
:1003A000204604EB87029161E1688847012F0646E9
:1003B00018D1E069002820DA25F020051DE0D8F8E2
:1003C000180000EB800006EB40003038C8F8180039
:1003D0002046E1688847064603F07EF80028EED103
:1003E000012F0AD02E2E08D12046E16888477F1CB5
:1003F0000646022F45F02005C4DBA069002803DA79
:10040000404245F00105A061E80701D025F0100544
:10041000B6B1A6F14100192802D8203645F400658E
:100420004A463146204625604D46FFF799FE58B1B1
:10043000012806D0ED1D25F0070000F1080989E725
:1004400004E005F1040985E730468AE7206ABDE843
:10045000F08710B5431C02E010F8011B71B1810751
:10046000FAD14FF0013202C88C1A8C4314EAC2113F
:10047000F9D0C01A0A0603D0C01E10BDC01A10BDA4
:100480000A0401D0801E10BD0902FCD0401E10BD20
:100490004FF000020429C0F0128010F0030C00F0AD
:1004A0001B80CCF1040CBCF1020F18BF00F8012B2B
:1004B000A8BF20F8022BA1EB0C0100F00DB85FEAF9
:1004C000C17C24BF00F8012B00F8012B48BF00F8C5
:1004D000012B70474FF0000200B513469446964634
:1004E000203922BFA0E80C50A0E80C50B1F1200147
:1004F000BFF4F7AF090728BFA0E80C5048BF0CC0F5
:100500005DF804EB890028BF40F8042B08BF704752
:1005100048BF20F8022B11F0804F18BF00F8012BC4
:10052000704710B5044610F0030F08BF11F0030F19
:1005300040F015804FF0013E121FC0F20E8051F8BE
:10054000043BA3EB0E0C2CEA030C1CEACE1C08BFE8
:1005500040F8043BF0D0A1F1040102F10402521E64
:1005600008DB11F8013B002B00F8013BF7D11146E5
:10057000FFF78EFF204610BD4FF0013C50F8042BD2
:1005800051F8043B9A4221D1A2EB0C03934313EAA6
:10059000CC1317D150F8042B51F8043B9A4215D1D3
:1005A000A2EB0C03934313EACC130BD150F8042BAA
:1005B00051F8043B9A4209D1A2EB0C03934313EA8E
:1005C000CC13DBD04FF00000704700BFD01A01BA47
:1005D000B1FA81F101F0180122FA01F0CB40C1F12A
:1005E0002001DBB2C0B2C01A2CFA01F3D11A914338
:1005F00011EAC311E6D1704770477047704710B5D4
:1006000000F0BAFA006810BD10B5044600F0B4FA64
:10061000046010BD2DE9F0470D4699469246044608
:1006200000F124080168880604D5E06921F0100172
:10063000216000E00120A84201DD471B00E0002707
:10064000A1697A1902EB0900081AA0612078C00696
:1006500002D42046FFF7EAFD002608E0D4E9012194
:100660001AF806009047206A401C761C20624E450E
:10067000F4DB2078C0060AD52046FFF7D7FD06E058
:10068000D4E9012130209047206A401C2062381EA6
:10069000A7F10107F4DC07E0D4E9012118F805000F
:1006A0009047206A401C2062281EA5F10105F3DC5A
:1006B0002046FFF7D1FD2078000602D50220BDE8D4
:1006C000F0870120FBE770472DE9FF4F0C461E46DF
:1006D0004FF0FF378BB0D2E90001DDF860800A905F
:1006E0008A46C1F30A5505B93D46002108464FF038
:1006F0000000BAF1000F00F4400005DA00EB8000C2
:100700004FF4400101EA50004FEA9059B9F1010F4E
:1007100000DDB9460A9850EA4A000ED044F610505F
:10072000A5F2FF3545432F14B8F1000F1ED07542D6
:10073000291E1EDDC9F100021CE0B8F1010F4FF0C7
:10074000000001D0302103E0F24305E02154401CB9
:10075000B042FBDB30460022002121540B99C1F846
:100760000880C1E900200FB0BDE8F08FBD1B6D1CF3
:10077000DEE74A4600DA694206A800F087FA06ABCF
:1007800093E8070003AB83E8070050460A9900F09E
:100790002CFB8DE80700A0F500501F38009003984F
:1007A000002D0ADD42F21F014A460844002303A936
:1007B0000390684600F095FD09E0A0F500504A4618
:1007C0001F38002303A90390684600F09FFD8DE8C1
:1007D00007000004000C03D04FF0FF30410800E098
:1007E0001046B8F1000F03D00022009215461EE01B
:1007F000751E05D400F0C4F9303262556D1EF9D56E
:10080000B3460122084302D000227F1C04E0207876
:10081000302801D100227F1E002A099784D01DE0D4
:10082000112D07DA00F0ACF9303262556D1C50EA38
:100830000102F5D1084302D00098C8B10EE00021B2
:10084000681E05E0235C625C63542254401E491C10
:100850008142F7DBAB46A81B401E0990002004F83C
:100860000B000B98099AC0F80880C0E9002B7AE7C2
:1008700011264FF0000857E72DE9F04F884604464F
:10088000D21D22F0070191B0D1E90001CDE90A01A2
:1008900002F089FD02460B98C00F01D02D2007E021
:1008A0002068810701D52B2002E0202101EAC00049
:1008B000032A099001D0072A05DB0346414620465A
:1008C00000F0A4F90BE12078800601D5E06900E092
:1008D0000620B8F1650F814606D0B8F1660F18D032
:1008E000B8F1670F70D131E00020B9F1110F00901D
:1008F00001DB112301E009F101030AAA01A90CA8F7
:10090000FFF7E2FEDDE90C70002609F101058346E0
:1009100047E001204B4600904FF000470AAA01A98A
:100920000CA8FFF7D1FEDDE90DB00C995D4600265D
:1009300010B909F101000D18B9EB050003D4C0F19D
:10094000FF3609F10105A5EB09002BE0B9F1010F14
:1009500001DA4FF001090020B9F1110F009048466B
:1009600001DD112300E003460AAA01A90CA8FFF744
:10097000ABFEDDE90C704D4600268346207800076B
:100980000AD4AB4500DA5D4601A8012D04DD41190A
:1009900011F8011C302907D04F4502DA17F1040F76
:1009A00004DA012082460FE06D1EEEE7002F02DC24
:1009B000ED1B3E4403E0781CA84200DD7D1CB81B03
:1009C00000F1010A4FF000472078000703D4AA4540
:1009D00001DB4FF0FF3A0021B7F1004F0DF1430862
:1009E0008DF8431024D002202B23002F01DA7F4200
:1009F0002D230A21021EA0F1010000DC5FB197FB4C
:100A0000F1FC97FBF1F201FB1C7C17460CF1300C5A
:100A100008F801CDEEE7A8F101000370218809056F
:100A200001D5452100E06521A0F1010800F8011C75
:100A300009980FA9A1EB0807FF1D00B1012041197A
:100A400001EBEA70A1693844081A401EA0612078C1
:100A5000C00602D42046FFF7E9FB099828B1D4E983
:100A600001219047206A401C20622078C00622D5D0
:100A70002046FFF7DBFB1EE0002E04DBB34502DD62
:100A800001A8805D00E03020D4E901219047206A70
:100A9000401C2062761CAAF101005FEA000A0AD11C
:100AA00000F066F8C0680168405CD4E90121904715
:100AB000206A401C2062281EA5F10105DCDC07E04D
:100AC000D4E9012118F8010B9047206A401C2062EC
:100AD000381EA7F10107F3DC2046FFF7BDFB03201A
:100AE00011B041E601694A1C02610878704700B5FF
:100AF0008FB0CDE901310021059105497944CDE957
:100B0000031011466846FFF71DFC0FB000BD000042
:100B1000E5FFFFFF0A6802F8010B0A60704710B595
:100B2000436913B1AFF3008001E0FFF7A6FB01209A
:100B300010BD127800F124010A7000224A700122CF
:100B4000EDE711684FF0FF32E9E70000074B70B5A1
:100B50000D467B44FFF7CBFF0446284600F008F91A
:100B600010B14FF0FF3070BD204670BDBB2B0000B0
:100B700000487047A8010020004870478801002005
:100B800030B5B0F10A024FEA900E71F100034EEA5F
:100B9000817EB0EB0E0061EB91014FEA101E4EEA30
:100BA000017E10EB0E0041EB11114FEA102E4EEAC0
:100BB000016E10EB0E0041EB11214FEA104E4EEA90
:100BC000014E10EB0E0041EB1141401841F10001C4
:100BD0004FEAD00040EA41704FEAD10110EB8005A6
:100BE0004FEA810444EA907444EB01046D1944EB2C
:100BF0000404521BA3414FF0000348BF0A3200D542
:100C000030BD401C41F1000130BD00002DE9F04134
:100C10001F46044603260168072A01F4006004DB2E
:100C200008B116A505E016A503E008B115A500E07A
:100C300015A521F010002060A069C01EA0610FB1B1
:100C4000401EA0612046FFF7F1FA4FB1D4E901211F
:100C500038469047206A401C2062C01C206206E093
:100C6000206AFAE7D4E9012115F8010B9047761EB6
:100C7000F8D22046FFF7F0FABDE8F0814E414E0071
:100C80006E616E00494E4600696E66002DE9F047C0
:100C9000814616468AB0354878440DC88DE80D0067
:100CA00032487844801C03AC0DC884E80D0041F63E
:100CB0009B300844372190FBF1F290FBF1F5A5F150
:100CC000800501FB12041B3C02D56442012000E0B8
:100CD0000020DFF898A080460027FA44AAF1BE0A57
:100CE0000EE0E0070AD03246684607EB47010123D1
:100CF0000AEB810100F00AFB8DE8070064107F1CFD
:100D0000002CEED1194F7F44AE3F19E0E80715D013
:100D100007EB04100DF1180A90E80E008AE80E00A7
:100D2000C068F04201D1981908903246012306A903
:100D300003A800F0EBFA03AB83E807006D10641C16
:100D4000002DE3D14FF0010332466946B8F1000FA0
:100D500003A802D000F0C5FA01E000F0D7FAC9E913
:100D60000001C9F808200AB0BDE8F087B04C0000C7
:100D7000007B00F080007047004870478801002029
:100D80007546FFF7F9FFAE4605006946534620F069
:100D90000700854618B020B5FFF716FABDE82040D9
:100DA0004FF000064FF000074FF000084FF0000B27
:100DB00021F00701AC46ACE8C009ACE8C009ACE8DA
:100DC000C009ACE8C0098D46704710B50446AFF3C2
:100DD00000802046BDE81040FFF7E2B90149182025
:100DE000ABBEFEE72600020070475FEA400C08BF7A
:100DF00091F0000F4FEA8C234FEAC12243EA515190
:100E00004FEA1C5018BF00F5F0404FEA300018BF01
:100E100041F000415FEA6C5C00F02980BCF1FF3FCB
:100E200008BF40F080407047130C06BF12044FF01B
:100E3000100C4FF0000C130E04BF12020CF1080C42
:100E4000130F04BF12010CF1040C930F04BF9200A6
:100E50000CF1020CD30F04BF52000CF1010C11462F
:100E60004FF00002A0F11F00A0EB0C00704711F042
:100E7000004F08BF704731F000413FF4D5AF0B0C75
:100E800006BF09044FF0100C4FF0000C0B0E04BF0E
:100E900009020CF1080C0B0F04BF09010CF1040C42
:100EA0008B0F04BF89000CF1020CCB0F04BF49006B
:100EB0000CF1010CCCF12003A0EB0C0022FA03F39F
:100EC00002FA0CF241EA030100F10100704720F040
:100ED0007F4C80EA030023F07F47ACEB070303F568
:100EE0007C5300F0004003F1FF032DE980494FEAF5
:100EF000154B09B44FEA144325EA0B4E24EA034884
:100F00000FF2042606EB132749083E785FEA320207
:100F100003FB0667C7F5000707FB06F64FEA5437E1
:100F20004FEAD64606F1020607FB066CCCF1005CE0
:100F30004FEA1C472CEA074C07FB06F40CFB06F5AE
:100F400004EB15464FEA961634BF00204FF00040E0
:100F50004FEAD13706FB07FC4FEA1C4C0CFB0BF7A2
:100F6000D21B03FB0CF761EB07010CFB0EF7B0EB98
:100F7000074072EB17420CFB08F734BFA2EB0742A5
:100F8000B2EB074261EB17414FEA0C444FEA91077D
:100F900006FB07FC4FEA1C4C0CFB0BF7B0EBC74001
:100FA00072EB573203FB0CF734BFA2EBC742B2EB34
:100FB000C74261EB57310CFB0EF7B0EBC70072EB89
:100FC00057720CFB08F734BFA2EBC702B2EBC702A3
:100FD00061EB5771039F4FEA816141EA921104EB83
:100FE000CC044FEAD1374FEA826206FB07FC42EAA3
:100FF00090124FEA80604FEA1C4C0CFB0BF7D21B9F
:1010000003FB0CF761EB07010CFB0EF7B0EB07409D
:1010100072EB17420CFB08F734BFA2EB0742B2EBAE
:10102000074261EB17414FEA8C554FEA910704EBF9
:101030009C2406FB07FC4FEA1C4C0CFB0BF7B0EBA7
:10104000C74072EB573203FB0CF734BFA2EBC74229
:10105000B2EBC74261EB57310CFB0EF7B0EBC700A8
:1010600072EB57720CFB08F734BFA2EBC702B2EB6E
:10107000C70261EB577115EB4C254FEA816141EADC
:1010800092114FEA82624FEAD13742EA901206FB90
:1010900007FC44F100044FEA80604FEA1C4C0CFB53
:1010A0000BF7D21B03FB0CF761EB07010CFB0EF7F0
:1010B000B0EB074072EB17420CFB08F734BFA2EB12
:1010C0000742B2EB074261EB174115EB1C154FEAE3
:1010D000813141EA92414FEA823242EA90424FEA3C
:1010E00080304FEA0C7644F1000448EA03434EEAAC
:1010F0000B484FF0000EB2EB080C71EB030724BF56
:10110000624639464EEB0E0E4FF0000B001852416E
:1011100049414BEB0B0BB2EB080C71EB03077BF176
:10112000000B24BF624639464EEB0E0E4FF0000B0B
:101130000018524149414BEB0B0BB2EB080C71EB21
:1011400003077BF1000B24BF624639464EEB0E0EBF
:1011500051EA020718BF46F0010616EB0E7655F16C
:10116000000254F1000103D5BDE88901BDE8008803
:10117000BDE88901BDE80048B619524141EB0101C3
:10118000A3F10103704780807F7E7D7C7B7A797834
:10119000777676757473727171706F6E6E6D6C6C3C
:1011A0006B6A6A69686867666665646463636261DE
:1011B0006160605F5F5E5E5D5D5C5C5B5B5A5A595F
:1011C00059585857575656555555545453535252CB
:1011D0005251515050504F4F4F4E4E4D4D4D4C4C23
:1011E0004C4B4B4B4A4A4A4949494848484747476C
:1011F00047464646454545444444444343434342A9
:10120000424242414141002B9C4630D477002BD0D2
:101210001CB54FEA370703B44FF010004FF0100130
:10122000BAF1000F06D0BCF1000FDCBF40F008009F
:1012300040F008014FF000000FBCBDE810400BF17A
:10124000010BBBF1010F08BF5FEA170722BF12F1C4
:10125000010211F101014FF0004143F1000300F0E0
:10126000004043EA00007047F9D35708D0E746EA48
:10127000064613F1400F4FEA16461FDD13F1200F0B
:10128000DFBF16430A46002120335B42BED0C3F1C4
:10129000200746EA064602FA07F74FEA164646EAEC
:1012A0000706C3F1200722FA03F201FA07F721FA31
:1012B00003F14FF0000342EA0702A7E746EA0206FD
:1012C00046EA06464FEA164646EA0106BCBF46EA2B
:1012D0000646360C4FF000034FF000024FF00001BD
:1012E00094E72DE9804C9A46934670B491E8380013
:1012F00007C831EA400C48BF34EA430C03D5FFF776
:10130000E6FDFFF780FFF0BCBDE8008C2DE9804CC6
:101310009A46934670B491E8380007C810F0804FA1
:1013200008BF13F0804F03D100F005F8FFF76BFF03
:10133000F0BCBDE8008C20F07F4780EA030023F07A
:101340007F4C07EB0C03A3F57C5300F00040A3F1A6
:10135000FE0392F0000F00F0B38095F0000F00F054
:1013600077802DE901494FEA11404FEA144621EAFE
:10137000004800FB06FC24EA064708FB06F607FBCC
:1013800008F800FB07F718EB06484CEB164C4FEA41
:10139000124B18EB07484FEA15464CEB174022EA70
:1013A0000B4E0BFB06FC25EA06470EFB06F607FB79
:1013B0000EFE0BFB07F71EEB064E4CEB164C4FF0E8
:1013C00000061EEB074E4CEB174B18EB0B0840F1D9
:1013D000000018EB0E0B58EB000840F100008F1ACC
:1013E0004FF000013CBFC943661B14BFB5EB040CB2
:1013F00000213CBFC943F61B4FEA17444EEA8E0E4C
:1014000027EA04454FEA1C4704FB07622CEA074C15
:1014100005FB07F70CFB05F604FB0CFC16EB074677
:1014200042EB174216EB0C4642EB1C421BEB060646
:1014300058EB0202414146EA9E0601D5BDE801890A
:10144000B619524141EB0101A3F10103BDE8018945
:101450004FEA14454FEA114724EA054621EA074CB2
:1014600005FB07F406FB07F70CFB06F105FB0CFC7C
:1014700011EB074144EB17444FEA124711EB0C41C3
:1014800044EB1C4422EA074C05FB07F206FB07F776
:101490000CFB06F605FB0CFC16EB074642EB17426D
:1014A00016EB0C4642EB1C456A1854F1000148BF8C
:1014B0007047B619524141EB0101A3F10103704796
:1014C00095F0000F37D04FEA11424FEA144721EA56
:1014D000024624EA074C02FB07F106FB07F70CFB68
:1014E00006F402FB0CFC14EB074441EB17414FEAF6
:1014F000154714EB0C4441EB1C4125EA074C02FB59
:1015000007F506FB07F70CFB06F602FB0CFC16EBD7
:10151000074645EB174516EB0C4645EB1C421219E6
:1015200051F1000148BF7047B619524141EB01012A
:10153000A3F1010370474FEA14454FEA114724EA2B
:10154000054621EA074C05FB07F106FB07F70CFBF4
:1015500006F24FF0000605FB0CFC12EB074241EBD4
:10156000174112EB0C4251EB1C4148BF70479218D7
:1015700041EB0101A3F101037047FEE7014800F0D0
:10158000B9B800001001002030B590F84050012497
:10159000AC40C56B6C60046863604368102B0368E3
:1015A00003D099600068C26030BD9A600068C16075
:1015B00030BD00002DE9F041164E4FF400770025B4
:1015C0003946304601F079FC00244FF001083946D5
:1015D000304601F07DFC00223946304600F0A1FA89
:1015E000022002F083F83946304601F066FC3946A5
:1015F000304600F091FA18B108FA04F02843C5B259
:101600003C2002F073F8641C082CE0DB2846BDE89F
:10161000F08100000008014070B5144D4FF40074D3
:101620002146284601F054FC00222146284600F0BD
:1016300078FA4FF4F07002F059F82146284601F08C
:101640003CFC502002F052F82146284600F064FA93
:1016500050B14FF0FF3406A0FEF7C8FD4FF4C8703C
:1016600002F044F8204670BD0124F4E70008014070
:10167000202000002DE9F0411B4E07464FF4007575
:101680002946304601F024FC00244FF0010800BF39
:1016900008FA04F038422946304611D001F018FC0F
:1016A00000222946304600F03CFA012002F01EF8E4
:1016B0002946304601F001FC322002F017F80DE017
:1016C00001F006FC00222946304600F02AFA3220BA
:1016D00002F00CF82946304601F0EFFB641C082CA0
:1016E000D6DBBDE8F081000000080140704772B60B
:1016F000FEE700002DE9F05FC16B0C6801680B6824
:10170000D0F840C0042202FA0CF2494DDFF824A1BF
:10171000494E4A4FDFF828B1DFF828E122422CD0A9
:101720005A072AD50A68920603D40A6822F00402EE
:101730000A600168A94201D1042219E0514501D192
:10174000402215E0B14202D14FF4806210E0B9426C
:1017500002D14FF480420BE0594502D14FF4802270
:1017600006E0714502D14FF4800201E04FF0806243
:101770002F4908394A60C16A3BE04FF0020808FA75
:101780000CF818EA040F4FF000094FF0010235D0B1
:101790005FEA837832D50B689B0605D40B6823F08B
:1017A0000A030B6080F821200168A94201D10222BE
:1017B00019E0514501D1202215E0B14202D14FF488
:1017C000007210E0B94202D14FF400520BE05945CB
:1017D00002D14FF4003206E0714502D14FF40012FD
:1017E00001E04FF00072124908394A6080F82090F9
:1017F000816A00291AD0BDE8F05F0847082505FA7C
:101800000CF5254212D01B0710D50B6823F00E03F0
:101810000B6090F84010C36B02FA01F159608263CB
:1018200080F8212080F82090016BE2E7BDE8F09F6E
:10183000080002401C000240300002404400024008
:10184000580002406C00024030B528B308C8134964
:1018500014221944B1FBF2F18900C163104981637C
:10186000022141771A6843F6F0718A43D0E90014E7
:101870002143D0E902452C432143046921434469B3
:1018800021438469214311431960002141630122EE
:1018900042770177084630BD012030BDF8FFFDBF1B
:1018A0000000024070B5044690F820000025012891
:1018B0000CD0012084F8200094F821600020012E33
:1018C00006D084F820000225284670BD022070BD95
:1018D000022684F82160A0632068066826F00106CD
:1018E00006602046FFF750FEE06A00282068016885
:1018F00002D041F00E0106E021F0040101602068F1
:10190000016841F00A0101602068016841F00101AD
:101910000160D9E770B5044600F008F90546601C7F
:1019200002D004480078044400F000F9401BA042B3
:10193000FAD370BD200000202DE9F84FDFF8B891F0
:10194000002409F1040A0AF1040B23460F270BF1C6
:10195000040EC9E00125A5402A40AA427DD1674E68
:10196000D1F804C0ACEB0608B44532D014DCBCF1AD
:10197000030F3AD009DCBCF1000F2AD0BCF1010FF3
:101980001CD0BCF1020F31D11DE0BCF1110F17D0FA
:10199000BCF1120F2AD119E0B8F5881F19D006DC66
:1019A000B8F5803F15D0B8F5801F1FD111E0B8F50C
:1019B000001F0ED0B8F5041F18D10AE0CB6815E05F
:1019C000CB681B1D12E0CB6808330FE0CB680C33EB
:1019D0000CE08B682BB1012B4FF0080303D045615D
:1019E00004E0042302E0056100E00023FF2A01D89F
:1019F000064601E000F104064FEA840501D9A5F18D
:101A00002005D6F8008007FA05FC28EA0C0803FA3E
:101A100005F548EA0508C6F800804D68ED0062D576
:101A2000374DAE6946F00106AE61AD6924F003069C
:101A300005F001050095334D06EB050CDCF8085068
:101A4000A607360F07FA06F825EA0805DFF8B8807A
:101A5000404503D14FF0000817E044E0DFF8AC80C8
:101A6000404502D14FF001080FE0DFF8A480404567
:101A700002D14FF0020808E0DFF89880404502D11B
:101A80004FF0030801E04FF0040808FA06F848EAAE
:101A90000508CCF808804D68D9F80060ED034D4684
:101AA00001D5164300E096432E604D68DAF80060D9
:101AB000AD03554601D5164300E096432E604D68B0
:101AC000DBF80060ED025D4601D5164300E0964369
:101AD0002E604D68DEF80060AD02754601D51643F4
:101AE00000E096432E60641C0D682A46E5407FF4B2
:101AF00031AFBDE8F88F0000000401400000111074
:101B0000001002400000014000080140000C0140AC
:101B100000100140001401408068084000D00120FE
:101B200070470AB1016170470904FBE7014880680A
:101B3000704700002000002070B5040025D094F804
:101B40003D00002520B984F83C50204600F04EF9B5
:101B5000242084F83D002068016821F00101016023
:101B60002068016841F4004101602068016821F4A7
:101B70000041016000F0A6FA4D4A6168914201D827
:101B80004C4900E04C49884201D2012070BD4B49CC
:101B90002368B0FBF1F15E6826F03F060E435E60FD
:101BA0006368934206D94FF4967359434FF47A739E
:101BB000B1FBF3F12368491C1E6A26F03F0631434E
:101BC00019626168914210D84900401EB0FBF1F2E1
:101BD000521CC2F30B02042A01D2042022E0B0FB03
:101BE000F1F0401CC0F30B001CE0A268F2B301EB63
:101BF000C10303EB0116431EB3FBF6F35B1C43F476
:101C000080431B0549D092B301EBC10202EB0111E5
:101C1000401EB0FBF1F0401CC0F30B0040F48040CC
:101C200040F400402168CA694CF6FF739A431043A0
:101C3000C861D4E9071001432068026822F0C0029D
:101C400011430160D4E9030101432068826848F22E
:101C5000FF339A4311438160D4E9050108432168A9
:101C6000CA6822F0FF021043C86001E00EE016E0EF
:101C70002068016841F0010101602564202084F89A
:101C80003D00256384F83E50002070BD01EB410605
:101C9000431EB3FBF6F35B1CB3E70120C2E701EB85
:101CA0004101401EB0FBF1F0401CC0F30B00B7E750
:101CB000A086010080841E0000093D0040420F0004
:101CC0002DE9F84F1F4690468A460446DDF82890D5
:101CD000FFF72CFF054694F83D0020287FD11923FB
:101CE000012240492046009500F0ECFE002876D104
:101CF00094F83C00012872D0012084F83C00206850
:101D00000168C90703D1016841F001010160206841
:101D1000016821F400610160212084F83D00102059
:101D200084F83E0000262664C4F824806785608D10
:101D300020852D48E0622B464A465146204600F059
:101D40004DFE90B9206841698069009036E02A46CE
:101D50004946204600F035FF50B1206C042804D1DC
:101D60002068016841F4007101600120BDE8F88F2E
:101D7000606A216800780861606A401C6062618D59
:101D8000491E6185218D491E89B2218522685369CA
:101D9000DB435B070BD451B100781061606A401CD3
:101DA0006062608D401E6085208D401E20852A4621
:101DB0004946204600F060FE0028CED1208D002844
:101DC000C5D154F83D0B016841F400710160202039
:101DD00004F81E09E67766770020C7E7FFE70220D0
:101DE000C4E70000020010000000FFFF10B586B03D
:101DF00000210091019102910391006813498842EA
:101E000022D1134CA06940F00800A061A069694686
:101E100000F0080004904FF44070009012200190F0
:101E2000032003900B48FFF787FD0B48416841F002
:101E3000E06141F002014160E06940F40010E061BE
:101E4000E06900F40010049006B010BD005400409A
:101E500000100240000C014000000140024881686F
:101E6000027811448160704720000020074810B5B7
:101E7000016841F010010160032000F075F80F20A7
:101E800000F006F800F024F8002010BD0020024009
:101E900070B50D4D04464FF47A712878B1FBF0F01F
:101EA0000A490968B1FBF0F000F0F2FA48B9102CC9
:101EB00007D200222146501E00F036F800206C6048
:101EC00070BD012070BD0000200000202C0000200B
:101ED0000C4808B5816941F001018161816901F017
:101EE00001010091C16941F08051C161C06900F0F8
:101EF000805000900448416821F0E06141F0007199
:101F0000416008BD0010024000000140002809DBCC
:101F100000F01F02012191404009800000F1E02003
:101F2000C0F8001170470000F0B40E4B1B680C465F
:101F3000C3F30223C3F10705042D00D90425191D9D
:101F4000072901D2002300E0DB1E012606FA05F175
:101F5000491E214099409E40761E16403143F0BCF8
:101F600001F035BA0CED00E0064900F00702086800
:101F70004FF6FF03184040EA0220034A104308606E
:101F8000704700000CED00E00000FA052DE9F04775
:101F90000F46050061D0434E306800F00700B8429C
:101FA00009D2306820F0070038433060306800F014
:101FB0000700B84251D128683B4C810712D5400731
:101FC00003D5606840F4E06060602878000703D5BE
:101FD000606840F4605060606068A96820F0F000BC
:101FE000084360602878C00728D06868012810D0AE
:101FF0002168022810D0890700292EDA616821F0B3
:10200000030101436160FFF791FD804641F2883989
:102010000DE021688903EFE78901EDE7FFF786FD11
:10202000A0EB0801494502D90320BDE8F0876068AC
:10203000696800F00C00B0EB810FEFD1306800F060
:102040000700B8420BD9306820F0070038433060F1
:10205000306800F00700B84201D00120E5E7287899
:10206000400705D56068E96820F4E06008436060D7
:102070002878000706D56068296920F4605040EA96
:10208000C100606000F03EF86168084AC1F30311C6
:10209000515CC8400649086006480068FFF7F8FE32
:1020A0000020C2E700200240001002402258000831
:1020B0002C00002024000020014800687047000028
:1020C0002C0000200448054900684968044AC1F30F
:1020D0000221515CC84070472C00002000100240D3
:1020E000325800080448054900684968044AC1F3A9
:1020F000C221515CC84070472C00002000100240F3
:102100003258000812A185B00FC98DE80F0014A045
:10211000144A006804905168134801F00C03042B22
:1021200010D0082B0ED1C1F38343C9031DF803005F
:102130000AD5516804AAC1F34041515C0A4A504390
:10214000B0FBF1F005B0704708494843FAE70000DA
:1021500002030405060708090A0B0C0D0E0F1010E8
:10216000010200000010024000127A0000093D0048
:102170002DE9F84F040070D02078C04DC00749D039
:102180006868C0F38100012807D06868C0F3810047
:10219000022809D16868C00306D52868800339D5AC
:1021A00060680028E7D035E06068B0F5803F0BD06C
:1021B00010B1B0F5A02F11D0286820F4803028602D
:1021C000286820F4802002E0286840F480302860ED
:1021D000606890B1FFF7AAFC06460AE0286840F460
:1021E00080202860F0E700BFFFF7A0FC801B642878
:1021F00073D828688003F7D50CE0FFF797FC0646F4
:1022000005E000BFFFF792FC801B6428F0D8286827
:102210008003F7D420789A4E80074FF001094FF0E1
:10222000000839D5686810F00C0F07D06868C0F353
:102230008100022809D16868C00306D42868800795
:1022400014D52069012808D110E02069B0B1C6F882
:102250000090FFF76BFC074605E00AE1FFF766FC1C
:10226000C01B0228C4D828688007F7D52868616990
:1022700020F0F80040EAC10028600DE0C6F80080B8
:10228000FFF754FC074604E0FFF750FCC01B022890
:1022900023D828688007F7D4207800072CD5794800
:1022A000A169D9B1C0F80090FFF740FC074604E0EF
:1022B000FFF73CFCC01B02280FD8686A8007F7D5DF
:1022C00071484FF4FA510068B0FBF1F0009000BF84
:1022D0000098411E0091FAD20EE080E0C0F8008024
:1022E000FFF724FC074604E0FFF720FCC01B022890
:1022F00075D8686A8007F7D42078400760D5E86908
:102300000027C00008D4E86940F08050E861E8691F
:10231000012700F0805000905C480168C90513D483
:102320000168834641F480710160FFF7FFFB82463C
:1023300006E000BFFFF7FAFBA0EB0A0064284ED8C6
:10234000DBF80000C005F5D5E06801280AD008B127
:10235000052813D0286A20F001002862286A20F09E
:10236000040002E0286A40F001002862E06841F2BF
:10237000883B98B1FFF7DAFB82460BE0286A40F011
:1023800004002862EEE700BFFFF7D0FBA0EB0A01D4
:1023900059455AD8286A8007F6D50CE0FFF7C6FBE6
:1023A000824605E0FFF7C2FBA0EB0A0159454CD875
:1023B000286A8007F6D41FB1E86920F08050E861F0
:1023C000E06988B36968C1F38101022944D0022819
:1023D000C6F8608004D0FFF7A9FB044638E034E07B
:1023E000FFF7A4FB074604E0FFF7A0FBC01B022891
:1023F0002BD828688001F7D4206AB0F5803F05D13A
:102400006868A16820F4003008436860D4E90801D6
:102410000843696821F4741108436860C6F8609045
:10242000FFF784FB044606E025E000BFFFF77EFBD4
:10243000001B022809D828688001F7D51BE000BFDF
:10244000FFF774FB001B022802D90320BDE8F88FB8
:1024500028688001F4D40EE00128F7D06868226A69
:1024600000F48031914204D1616A00F47010884216
:1024700001D00120EAE70020E8E700000010024058
:1024800000004242800442422C00002000700040C4
:1024900010B5401EB0F1807F01D3012010BD4FF078
:1024A000E02460610F21601700F091FF0020A0611F
:1024B00007202061002010BD70B590F83C20012A53
:1024C00026D0012480F83C40022280F83D20036899
:1024D0005A689D6822F070060A6832435A600D4BB4
:1024E00002689A4208D0B2F1804F05D00A4B9A4256
:1024F00002D00A4B9A4204D1496825F0800319435F
:10250000916080F83D40002180F83C10084670BD85
:10251000022070BD002C0140000400400008004073
:1025200000B585B0002100910191029103910068EE
:102530000B49884211D10B48816941F00801816142
:102540008069694600F00800049040200090022055
:10255000019003900448FFF7EFF905B000BD0000BB
:102560000008004000100240000C014070B5044615
:1025700090F83C000D4601280AD0012084F83C0068
:1025800042B1042A18D0082A2AD00C2A4DD139E0A9
:10259000022070BD206800F01DFD2068816941F0B7
:1025A000080181612068816921F00401816120684E
:1025B00081692A69114311E0206800F033FD206829
:1025C000816941F4006181612068816921F4806141
:1025D0008161206881692A6941EA0221816124E0E0
:1025E000206800F04BFD2068C16941F00801C1611D
:1025F0002068C16921F00401C1612068C1692A69AC
:10260000114311E0206800F065FD2068C16941F4C4
:102610000061C1612068C16921F48061C1612068E5
:10262000C1692A6941EA0221C161002084F83C00A5
:1026300070BD10B5040003D094F83D0010B107E060
:10264000012010BD002084F83C00204600F01EF858
:10265000022084F83D00211D206800F077FC012055
:1026600084F8460084F83E0084F83F0084F8400077
:1026700084F8410084F8420084F8430084F8440060
:1026800084F8450084F83D00002010BD08B50068BE
:102690000649884208D10648C16941F00401C16178
:1026A000C06900F00400009008BD00000008004070
:1026B0000010024010B50446022249B104290ED090
:1026C000082913D094F84100012816D0012010BD2C
:1026D00094F83E000128F9D184F83E200FE094F8E8
:1026E0003F000128F2D184F83F2008E094F8400030
:1026F0000128EBD184F8402001E084F84120012238
:10270000206800F059FC0F492068884203D1426CD0
:1027100042F4004242642068884208D0B0F1804F01
:1027200005D00949884202D00849884204D181680D
:1027300001F00701062903D0016841F001010160A1
:10274000002010BD002C01400004004000080040A3
:1027500030B504460D460068002200F02DFC174BF2
:1027600041F2111120688A10984209D1036A0B4284
:1027700006D1036A134203D1436C23F4004343643C
:102780002068036A0B4206D1016A114203D1016835
:1027900021F00101016001203DB1042D08D0082D78
:1027A00009D084F84100002030BD84F83E00FAE7EB
:1027B00084F83F00F7E784F84000F4E7002C01407C
:1027C0007047704770B5040004D094F83D000025B0
:1027D00010B106E0012070BD84F83C50204600F0A6
:1027E00023F8242084F83D002068C16821F40051BA
:1027F000C160204600F010FD2068016921F490417D
:1028000001612068416921F02A0141612068C168A5
:1028100041F40051C1602564202084F83D0084F813
:102820003E00002070BD000070B586B00025064651
:10283000009501950295039500681E49884237D19D
:102840001D49C86940F40030C861C86900F400300F
:102850000490886940F0040088618869174C00F092
:1028600004000490042000900220019003200390B3
:1028700069462046FFF760F80820CDE90005694663
:1028800020460295FFF758F80E4C0D48C4E90005A4
:102890008020C4E9025020202561C4E9055020466B
:1028A000E561FEF7D1FF08B1FEF721FFB463666270
:1028B00006B070BD00440040001002400008014016
:1028C0006C0002401001002090F83E30202B0ED109
:1028D00059B152B190F83C30012B08D0012380F857
:1028E0003C300023036300F0F3BC0120704702205A
:1028F00070477047704700002DE9F843044690F890
:102900003D001F4616460D4620284CD1C5B1BEB12C
:1029100094F83C00012846D0012084F83C004FF098
:102920000008C4F84080212084F83D00FFF7FEF83D
:10293000A6848146E684A068B0F5805F03D004E0F9
:102940000120BDE8F883206928B12E465FF000051C
:1029500084F83C800EE00026FAE78021204600F053
:10296000EFFCA0B9AEB116F8010B21684860E08C0D
:10297000401EE084E08C4B464FF000020097002898
:10298000EBD14FF04001204600F0DAFC30B10320DB
:10299000D7E735F8020BC0F30800E6E7202084F8FB
:1029A0003D000020CDE70220CBE7FEE701684A6941
:1029B000D24352050FD46FF480624A61002140F87F
:1029C000301F202242738173026942F004020261C7
:1029D000017301207047002070470000F8B50446DD
:1029E000C06A1E460D461746082807D0012805D0A4
:1029F00010F5803F02D0206B122804D120680168B6
:102A000041F480710160134600224FF0011120460D
:102A1000009600F057F840B120680068C00502D564
:102A20004FF4007020640320F8BD2069B0F5804F9A
:102A30000ED00620216800EAD51040F0F0000861B1
:102A400033463A460B49204600F070F878B902E068
:102A500005F0FE0000E0E8B2216808610549334650
:102A60003A46891F204600F061F80028DCD001209A
:102A7000F8BD00000800010070B516460D4604467A
:102A80000DE02046FFF792FF08B1012070BD681CE1
:102A900005D0FFF74BF8801BA84207D835B1206856
:102AA0004069C0434007ECD4002070BD002044F8CA
:102AB000300F20216173A073216941F02001216151
:102AC0002073E2E72DE9F0471E4690460D46044686
:102AD000C1F30747DDF8209008E0701C06D0FFF72F
:102AE00025F8A0EB0900B0420FD876B12068012F7D
:102AF00018D0806925EA00000004000C14D00021E1
:102B00004145EAD00020BDE8F087002044F8300FAE
:102B100020216173A073216941F02001216120739C
:102B20000120F0E74069E5E70121E9E72DE9F047F9
:102B30009A4691460E46044600254FF02008C1F300
:102B4000074725E020684069C043400514D4206849
:102B5000016841F40071016021686FF48060486190
:102B6000256384F83D8084F83E50206C40F00400DA
:102B7000206484F83C501FE0B9F1FF3F08D0FEF715
:102B8000D5FFA0EB0A0149450CD8B9F1000F09D0D7
:102B90002068012F13D0806926EA00000004000C91
:102BA0000BD0CFE744F8305F84F80D80A57320691F
:102BB00040F02000206125730120BDE8F0874069C6
:102BC000EAE770B516460D4604460DE02046FFF7CD
:102BD000EDFE08B1012070BD681C05D0FEF7A6FF10
:102BE000801BA84207D835B120684069C043000661
:102BF000ECD4002070BD002044F8300F2021617318
:102C0000A073216941F0200121612073E2E70000F7
:102C1000094808B5416941F001014161406900225C
:102C200000F00100009005211020FFF77DF9BDE8BC
:102C300008401020FFF76AB90010024070B586B056
:102C400000241C480094019402940394816941F08B
:102C500010018161816901F010010491816941F0E5
:102C600020018161816901F020010491816941F0B5
:102C700004018161816901F004010491816941F0DD
:102C80000801816180690C4E00F008004FF4005586
:102C90000490002229463046FEF743FF01200095AC
:102CA000CDE901040220039069463046FEF744FE58
:102CB00006B070BD00100240001001400D4810B574
:102CC0000B4901600C49416000214FF48042816052
:102CD000C0E9031241618161C1610162FEF72CFF0D
:102CE000002803D0BDE81040FEF701BD10BD000074
:102CF0000054004030000020A086010010B58AB0CA
:102D0000002407941C2168460894FDF7E3FB16484D
:102D1000144901604721C0E9011444F61F61C0E96C
:102D200003148461FFF785FC08B1FEF7E0FC07940B
:102D300007A90D480894FFF7BFFB08B1FEF7D7FCC1
:102D40006020CDE9000402940022694606480494FC
:102D5000FFF70CFC08B1FEF7CAFC0348FFF7E0FBE5
:102D60000AB010BD00080040840000200E4810B5D5
:102D70000C4901604FF4E1314160002181600C2277
:102D8000C160C0E904128161C161FFF71BFD08B198
:102D9000FEF7ADFCBDE81040322204490248FFF7BF
:102DA00093BD000000440040CC00002054010020EE
:102DB000FEE7FEE7704700002DE9FC473148FDF7CC
:102DC00048FB3049072201446846C91FFDF7A9FBAB
:102DD00000258DF807502B48FDF73BFB2A4C322687
:102DE000DFF8A8802B2814D92648FDF732FB0146CE
:102DF0002448FDF74DFB2068016821F001010160C6
:102E0000206846602068016841F00101016088F88F
:102E100000501FA16846FDF7AFFBDFF87C901F4F05
:102E200078B11FA16846FDF7A7FB4FF0010888B1F4
:102E30001DA16846FDF7A0FB002821D187F800807E
:102E40000BE01BA0FDF7D2F989F800503D7088F81F
:102E5000005002E089F800803D700A48FDF7F9FA59
:102E600001460848FDF714FB2068016821F00101C4
:102E70000160206846602068016841F0010101603E
:102E8000BDE8FC875401002010010020190000203B
:102E90006D617974696E68001000002011000020D7
:102EA0006E68696574646F00746E67756F6E670035
:102EB0007965730A0000000070471FB50022CDE954
:102EC00000120221CDE902216946FEF735FD1FBD42
:102ED0001FB5002200910121CDE9011202210391C9
:102EE0006946FEF729FD1FBDFEF7B8BF30B58FB0AC
:102EF00028216846FDF7EEFA14210AA8FDF7EAFA40
:102F000001210804CDE90010002402940225049157
:102F1000CDE907504FF4E01009906846FFF728F913
:102F200008B1FEF7E4FB0F20CDE90A054FF48060FD
:102F3000CDE90C4002210AA80E94FFF727F80028DB
:102F400001D0FEF7D4FB0FB030BD7047F0B502687A
:102F5000164B174C174D4FF08047984205D0B8429A
:102F600003D0A04201D0A84203D122F070064A68E3
:102F70003243984205D0B84203D0A04201D0A842C3
:102F800003D122F44074CA6822434C6922F08002C3
:102F9000224302608A68C2620A688262984201D152
:102FA0000969016301214161F0BD0000002C01406D
:102FB000000400400008004010B501F01F0301218B
:102FC000046A99408C430462016A9A401143016289
:102FD00010BD000030B5026A22F001020262026AEE
:102FE0004368846924F073050C682C4322F00205C1
:102FF0008A682A430A4DA8420BD122F00805CA6804
:1030000023F440732A434D6922F004021D438B6967
:103010002B434360846149684163026230BD000014
:10302000002C014030B5026A22F010020262026AEE
:10303000436884690D6824F4E64444EA05248D68F5
:1030400022F0200242EA05120B4DA8420ED1CD68B3
:1030500022F0800242EA05124D6923F4406343EAFC
:1030600085038D6922F0400243EA85034360846151
:1030700049688163026230BD002C014030B5026AAC
:1030800022F480720262036A4268C46923F4007306
:1030900024F073050C682C438D6843EA05230C4D1E
:1030A000A8420ED1CD6823F4006343EA05234D699D
:1030B00022F4405242EA05128D6923F4806342EA09
:1030C00005124260C4614968C163036230BD0000FB
:1030D000002C014030B5026A22F480520262046A78
:1030E0004268C3690D6823F4E64343EA05238D680B
:1030F00024F4005444EA0534064DA84204D14D6935
:1031000022F4804242EA85124260C3614968016448
:10311000046230BD002C014070B5446A20684069EB
:1031200094F83D10C0F3C0100025212904D118B136
:10313000E584204600F067F82068406994F83E1066
:10314000C0F38010222904D118B1E585204600F093
:1031500042F8206C40F0100020642046FFF731FB5D
:1031600070BD10B50146406A0968096889061BD41C
:103170000021C1850168CA6822F48072CA600168B2
:103180004A6922F001024A6101684A6922F040025C
:103190004A61202180F83E10016B012904D10168A9
:1031A000CA6822F01002CA60016B012902D0FFF741
:1031B000A0FB10BD818DFFF703FB10BD10B5406A69
:1031C000016B012902D0FFF795FB10BD818D4908E5
:1031D000FFF7F6FA10BD0168CA6822F49072CA605F
:1031E00001684A6922F001024A61016B012904D198
:1031F0000168CA6822F01002CA60202180F83E10DF
:103200000021016370470168CA6822F0C002CA60E9
:10321000202180F83D10704770B5044600680169B0
:10322000E26821F44051114301612169A06808431B
:10323000616908432168CA6841F20C639A430243FA
:10324000CA6020684169A26921F44071114341615B
:103250001E492068884202D1FEF744FF01E0FEF7D4
:1032600031FF00EBC00101EB0012606864218000B7
:10327000B2FBF0F3B3FBF1F36FF018067343B2FB4C
:10328000F0F5B2FBF0F605EB8305322303EB0515F1
:10329000B5FBF1F5B6FBF1F605F0F00505EB06150B
:1032A000B2FBF0F6B2FBF0F0B0FBF1F06FF01802F9
:1032B000504306EB800003EB0010B0FBF1F02168F7
:1032C00000F00F002844886070BD00000038014005
:1032D00038B58162828500251346044605642220A4
:1032E00084F83E00A26B13489062A26B1248D06231
:1032F000A26B12481063A06B0A4645632168A06B5D
:10330000091DFEF7CFFA206801684168009184F832
:103310003C50C16841F48071C1602068416941F04E
:10332000010141612068416941F040014161002093
:1033300038BD000063310008BD31000819310008B4
:103340002DE9F041984617460E460446069D1DE0BD
:10335000681C1BD02DB1FEF7E9FBA0EB0800A842CA
:1033600014D92068C16821F4D071C1602068416916
:1033700021F001014161202084F83D0084F83E00E5
:10338000002084F83C000320BDE8F081206800683C
:1033900036EA000004D00020B842D9D00020F3E77C
:1033A0000120F9E7FEE7490050EAC12018BF0420D8
:1033B0004A0D18BF40F0010040F2FF72B2EB515FBE
:1033C00008BF40F00200012808BF05207047090728
:1033D000090E002804DB00F1E02080F8001470479B
:1033E00000F00F0000F1E02080F8141D70472DE977
:1033F000F0414F1E00EBC7010446D1E9000115461C
:103400001E4637F006020DD02A46334601F04EFB29
:103410007F1E04EBC703D3E9002301F09FF837F0C8
:103420000602F1D1022F25D0042F13D0062F18BF8A
:10343000BDE8F0812A46334601F038FBD4E90A237F
:1034400001F08CF82A46334601F030FBD4E908231A
:1034500001F084F82A46334601F028FBD4E906231C
:1034600001F07CF82A46334601F020FBD4E904231E
:1034700001F074F82A46334601F018FBD4E9022320
:1034800001F06CF82A46334601F010FBD4E9002322
:10349000BDE8F04101F062B8002213461046014930
:1034A00001F018B90000F03F01F058B800221346AF
:1034B0001046114601F00EB940F2013200204FF0E3
:1034C000E04102F042B90000024A0020110702F078
:1034D0003CB9000001FDFFFF30380A2801D201206D
:1034E00070470020704700002DE9F0472848007819
:1034F00000284AD000252748FCF7ABFF264C401E89
:10350000244F264E20602CE0385C303809282CD817
:103510002048FCF79EFF2168401A401E01F076FA11
:1035200002460B4600201E4900F00AFA8046206839
:1035300089468246385C303801F051FA42464B46A3
:1035400001F0B4FA80468946284601F05FFA424607
:103550004B4601F003F801F015FAC5B2AAF10100DB
:10356000206096F900108842CEDA0A48FCF771FF15
:103570000C4C3070294622780BA0FCF737FE2078DF
:10358000854202D0002D00D02570BDE8F0870000F4
:103590001100002054010020140000201900002018
:1035A000000024401800002025642025640000004D
:1035B0002DE9F05F3F48404E007888B140483F4CCD
:1035C0002146006802F018F83E4901F049FF214603
:1035D00001F01CFE3C4901F0A5FD01F0D9FE5BE0C5
:1035E0003A48FCF736FF3A4F97F90010884254D01A
:1035F00038480078002850D100253448FCF729FFCE
:10360000354C401EDFF8C48020602EE018F8000022
:10361000303809282DD82D48FCF71BFF2168401AA7
:10362000401E01F0F3F902460B4600202B4900F042
:1036300087F9814620688A46834618F800003038AA
:1036400001F0CDF94A46534601F030FA82468946E8
:10365000284601F0DBF952464B4600F07FFF01F0AF
:1036600091F9C5B2ABF10100206097F900108842D2
:10367000CCDA1648FCF7EDFE3870B42D00D9B4252D
:10368000294617A0FCF7B2FD4FF4FA604543B42079
:10369000B5FBF0F000F5FA703080134930880A88E5
:1036A000824204D00880BDE8F05F00F0C7BEBDE8EC
:1036B000F09F0000100000201A0000200000A04130
:1036C0000C0000200000FA440000FA4354010020DE
:1036D00019000020110000201400002000002440E8
:1036E000676F633A202564001C00002010B5044673
:1036F000FEF7E2FC05494FF0E022B0FBF1F19069E2
:1037000061439369C31A8B42FBD310BD40420F0043
:1037100013B54FF0FF33012269460248FFF7ECF87A
:1037200000981CBDCC00002000B58DB00421002005
:1037300000F08CF81AA000F0D5F80221012000F06A
:1037400085F819A000F0CEF80D21012000F07EF8D8
:1037500017A000F0C7F8C62000F084F815480068EC
:1037600001F0B4FC02460B4613A16846FCF74AFD83
:10377000684600F0B7F8694611A0FCF737FD0B2149
:10378000012000F063F8DF2000F08CF80C2101200C
:1037900000F05CF80EA000F0A5F80DB000BD000030
:1037A000445331384232300054203D2000000000A4
:1037B000202020000C00002025322E326600000060
:1037C0006E6869657420646F3A2025730A000000F2
:1037D0004300000010B53220FEF79CF8302000F0C6
:1037E00041F80520FEF796F8302000F03BF8012064
:1037F000FEF790F8302000F035F80A20FEF78AF83E
:10380000202000F02FF80A20FEF784F8282000F08E
:1038100029F80120FEF77EF8082000F023F80120A7
:10382000FEF778F8012000F01DF80120FEF772F88D
:103830000120FEF76FF8062000F014F80120FEF7D3
:1038400069F8BDE810400C2000F00CB810B1012858
:1038500005D102E041F0800101E041F0C001C8B2B1
:10386000AFF300801CB500F0F00141F00C028DF8C0
:10387000042041F0080100018DF8051040F00C0112
:103880008DF8061040F008008DF8070064200090C5
:10389000042301AA4E210248FEF712FA1CBD0000C3
:1038A000300000201CB500F0F00141F00D028DF851
:1038B000042041F0090100018DF8051040F00D01D0
:1038C0008DF8061040F009008DF807006420009084
:1038D000042301AA4E210248FEF7F2F91CBD0000A4
:1038E0003000002010B5044602E0641CFFF7DAFF48
:1038F00020780028F9D110BDFEF7B8FAFFF7F6FAE4
:10390000FFF79CF9FFF784F9FFF7D8F9FFF7F6F90D
:10391000FFF72CFAFFF75EFF084800F0FDFCFFF709
:1039200003FFFFF749FAFFF743FEFFF7DDFD00F065
:1039300027FD6420FDF7EEFFEEE700000C000020FD
:103940002DE9F04D1D460C4698B0174621F0004178
:1039500023F00043002814BF4FF0010C4FF0000C7F
:103960000CEB440CFE4A0CEB02064FEA620C664577
:103970002BD33E0018BF012606EB45061644F94A34
:10398000964222D3F84A53EA070C02D0944205D15A
:1039900048B918B000201146BDE8F08D002808BFD6
:1039A0004FF0000C01D04FF0010C0CEB440212F56B
:1039B000001F0AD8002F14BF4FF0010C4FF0000C6D
:1039C0000CEB450212F5001F07D918B03A462B46FA
:1039D0002146BDE8F04DFFF767BD0022DFF88CA35C
:1039E000002CB8BF534526DADFF884C36345A8BF6F
:1039F000022220DADFF870C39C451CDCDFF874C3B8
:103A00000CEB235CBCF1140F08DDCCF1340627FA73
:103A100006FC0CFA06F6BE420DD108E05FB9CCF107
:103A2000140623FA06FC0CFA06F69E4203D10CF0AB
:103A30000102C2F1020251EA000C19D1002D17DA7D
:103A4000002C18BF022A01D0012A07D00220FCF75F
:103A5000DBFD18B0BDE8F04DFFF71EBD0220FCF7FE
:103A6000D3FDFFF719FD18B081F00041BDE8F08DDE
:103A7000B7F1000C6CD1534525D104F1804212F509
:103A8000801201BF00280020B74918B008BFBDE868
:103A9000F08DB548884207DC002DA1BF604629465D
:103AA00018B0BDE8F08D07E0281E05DA80F000416F
:103AB00018B06046BDE8F08DAF497944D1E9000106
:103AC00018B0BDE8F08DDFF8A0C2634525D1002D08
:103AD0001FDA19B1514512D1D8B909E0002840F0D8
:103AE000EC82A24A214618B062F31E01BDE8F08DB7
:103AF0000020214618B060F31E01BDE8F08D08DA01
:103B000018B02346BDE8F04D02460020614600F0A3
:103B1000E1BD18B02146BDE8F08D514518DAB5F188
:103B2000804F0DD0A5F1005CBCF1FF5C10D1B4F169
:103B3000000C0DDB18B06146BDE8F04D00F058BC3C
:103B4000234618B00246BDE8F04D194600F0AEBF5E
:103B5000060024F0004C3BD1D9B1514533D1002CA3
:103B600006DD002DA1BF0020514618B0BDE8F08D44
:103B7000002C01DD002D1BDB002C13DA002D11DBE6
:103B8000012A4FF0000014BF78497C4918B0BDE805
:103B9000F08D022A18BF002C0AD0012A08D1002C6F
:103BA00006DA0AE0002CB8BF002D11DA012A04D091
:103BB000002018B00146BDE8F08D18B000204FF08D
:103BC0000041BDE8F08DA1F14050B0F17F601AD006
:103BD000012000EBE47050EA020421D0624C521E36
:103BE0004FF0000B104304BF4FF0000B644C6548CE
:103BF00083427CDD644A654893421FDD884217DBBF
:103C0000002D25DB37E0002C00DA4AB1022A0CBF78
:103C100001204FF0FF3018B0BDE8F04D00F0DFBEDE
:103C20000120FCF7F1FC18B0BDE8F04DFFF73EBCF9
:103C30004D4A8A4202DC002D0ADC1CE0814202DA95
:103C4000002D18DA04E0484B994220DD002D12DDEA
:103C50000220FCF7D9FCFFF72FFC05460E46002298
:103C600053465846214600F021FF18B066F31E0166
:103C70002846BDE8F08D0220FCF7C6FCFFF724FCC7
:103C80000A46214618B062F31E01BDE8F08D0022FD
:103C90003046614601F030F980460E466FF0010271
:103CA00001F053FD4FF05532394B01F033F84246E5
:103CB000334600F0FBFE0022364B01F02BF8824623
:103CC0004246334604911046194600F0EFFE524634
:103CD000049B00F0EBFE8A4600904FF0C0422E4B52
:103CE0004046314600F0E2FE2C4A2B4B00E027E034
:103CF000CDE906015146009800F0D8FE82460191B8
:103D0000274A284B4046314600F0D0FE5246019BE0
:103D100001F0F2F882460B4602460591DDE9060104
:103D200000F01CFCDDE9062300268846304601F041
:103D3000E3F85246059B00F0EDFF024600F07EB925
:103D40000020B1F5801F07DA35223046614601F0C8
:103D5000FCFC06466FF0340000EB215024E000002C
:103D6000FFFF1F00FFFF0F000000F03F0000F07F8B
:103D70000000404301FCFFFF0A1E00000000F0FFAE
:103D80000000F0BF0000E0410000F043FFFFEF3F04
:103D90005555D53F0000E03F4715F73FFE822B65A4
:103DA00044DF5DF80BAE543EA0F2FF300190C1F34A
:103DB000130040F07F6141F040510291FE4988427A
:103DC000D8BF002004DDFD498142C8BF012001DDCC
:103DD0000D9008E000200D900198401C0190029881
:103DE000A0F5801002900299F54878440B910D9946
:103DF00000EBC100D0E900230F9330460A920B99E3
:103E000001F07AF8CDE90601DDE90A2130460F9B81
:103E100000F0A4FB02460B460020EA4900F05AFCE1
:103E2000059102460B460090DDE9060100F03EFEDA
:103E30001490E5488A464FF00008784402990068DB
:103E400012904FF0005040EA61010D980F9B01EB7A
:103E5000804000F5002109910A9A129801F04CF86F
:103E600032460B9B00F056FF4246534600F01EFEC2
:103E70000646029140465146099B129A00F016FEF2
:103E8000DDE9062300F046FF3246029B01F034F8DC
:103E9000059B009A00F00AFE0091149A0490534684
:103EA0001046194600F002FE06460246C7480B4679
:103EB000029106217844FFF79AFACDE90510029B9A
:103EC00032461046194600F0F1FDDDE9053200F0FA
:103ED000EDFD05910646534640461946149A00F0FA
:103EE0003DFB009B049A00F0E1FD3246059B00F08B
:103EF00035FBCDE90510424653461046194600F001
:103F0000D5FD0022B24B02910A9000F027FBDDE9BB
:103F1000053200F023FB0E464246AD4B404600F012
:103F2000EBFF029B0A9A00F0E7FFDDE9053200F0A3
:103F3000F1FE424602910A9033461046514600F087
:103F4000B5FDCDE906015346149A02990A9800F08E
:103F5000ADFD8A460290334642460099049800F02F
:103F6000A5FD5346029A00F0F9FA82460B46024636
:103F70000591DDE9060100F0F1FADDE906230020F4
:103F80008846064600F0B8FF5246059B00F0C2FE88
:103F9000824609914FF060428E4B3046414600F018
:103FA00085FD049006918C4A8A4B5046099900F091
:103FB0007DFD82460291894A894B3046414600F098
:103FC00075FD5246029B00F0C9FA864B7B440D9A60
:103FD00003EBC203D3E9002300F0C0FA0E9007916F
:103FE000019800F0FCFC0591DDE9061382460E9A6B
:103FF000049800F0B3FA7C4A7A440D9B02EBC303A9
:10400000D3E900230093029200F0A8FA5246059BE0
:1040100000F0A4FA0026884652463046059B00F080
:104020006BFF009B029A00F067FF069B049A00F06A
:1040300063FF079B0E9A00F06DFE024600200B46C0
:1040400002903846294600F031FD824601912B4608
:1040500038461946029A00F04FFF3246434600F0B8
:1040600025FD5246019B00F079FA07468A46324602
:1040700043462946029800F019FD05460E463A4689
:10408000534600F06BFA594A8846914221DBA8EB6F
:10409000020353EA000210D12A46334600F02CFFF7
:1040A000CDE90401524A534B3846514600F056FAC6
:1040B000DDE9042300F0F8FD21D20220FCF7A4FA88
:1040C000FFF7FAF90A46214618B062F31E01BDE86F
:1040D000F08D494B28F000429A4210D3474A08EB32
:1040E000020353EA00027FF4C6AD2A46334600F0CD
:1040F00003FF3A46534600F0D7FD7FF6BCAD0022E1
:10410000019228F000403E493E4A01EB2051824294
:1041100023DA481C4FF4801121FA00F040443A4A57
:10412000C0F30A517A44394BA1F2FF31CB4020EA67
:104130000303C0F3130040F48010C1F11401C84020
:1041400012680190B8F1000FBCBF404201902846B0
:10415000314600F0D1FE05460E462A463346384623
:10416000514600F0FBF94FF000084246284B40460C
:10417000059100F09BFCCDE90601264A264B4046FE
:10418000059900F093FC009102902A463346404680
:10419000059900F0B1FE3A46534600F0BBFD1F4AB8
:1041A0001F4B00F083FC009B029A00F0D7F90746F2
:1041B000884602460B4635E08E9803007AB60B001F
:1041C000521A00000000F03F8A1A0000B8190000DF
:1041D0000000084009C7EE3FFD033ADCF5015B141F
:1041E000E02F3EBE901800005418000000009040E0
:1041F000FE822B654715973C00CC904000346F3F02
:1042000001FCFFFF0000E03FA0170000FFFF0F00D0
:10421000432EE63F396CA80C615C20BEEF39FAFEF4
:10422000422EE63FDDE9060100F098F9DDE90623BC
:1042300005460E4600F060FE3A46434600F06AFD31
:104240000F462A46334600901046194600F02EFCD1
:10425000824602462E4888460B4605217844FFF7E1
:10426000C6F85246434600F021FC2A46334600F089
:1042700051FD80468A463B4628463146009A00F06A
:1042800015FC3B46009A00F069F906910090002267
:104290004FF080434046514600F02EFE0F460C90F2
:1042A000424653462846314600F000FC3B460C9AF5
:1042B00000F010FA069B009A00F01EFE2A463346D4
:1042C00000F01AFE0022134B00F024FD0546019871
:1042D0000E4601EB00510815002810DC2846314637
:1042E000019A01F032FAFFF75EF8042808BFFFF7E1
:1042F000EBF828463146019A01F027FA05460B46AD
:1043000018B02A4658462146BDE8F04D00F0CEBB15
:10431000401600000000F03F70B50546FDF77CF93F
:10432000164C20700120FFF7E1F9CC20FDF7A2F92F
:104330004420FDF79FF94FF44870FFF7D7F9FDF7D8
:104340006BF920700120FFF7D1F9CC20FDF792F92D
:10435000BE20FDF78FF9FDF72DF96070FDF72AF902
:10436000A070617841EA0020A08001F031F86FF080
:10437000030101F018FA286070BD00000000002061
:1043800070B50E484FF400540B4D007801F020F842
:104390000B49096801F030F804D20AA0FBF726FFA8
:1043A000002203E00DA0FBF721FF01222146284651
:1043B000BDE87040FDF7B5BB0010014018000020BB
:1043C0000C000020517561206E67756F6E67206E5E
:1043D0006869657420646F0A000000006E67756F7D
:1043E0006E672063686F20706865700A00000000C7
:1043F0002DE9F04106460F4600F098FC041E0D46DC
:1044000018BF0120284320F00040C0F17F6000F178
:10441000E040C00F0ED0301C18BF0120384320F000
:104420000040C0F17F6000F1E040C00F04BF0120F8
:10443000FCF7EAF820462946BDE8F08100B587B0D0
:104440006021CDE9001000200290024604906946E8
:104450001148FEF78BF800210F48FEF72BF90021D9
:104460000D48FEF775F910B10CA0FBF7BFFE002256
:1044700069460948FEF77AF810B110A0FBF7B6FEBE
:1044800000210548FEF716F9002803D0002118A0E6
:10449000FBF7ACFE07B000BD840000204C6F693A0A
:1044A000204B686F6E67207468652064756E6720A6
:1044B00054696D657220342E0A0000004C6F693A11
:1044C000204B686F6E672074686520636175206893
:1044D000696E68206B656E6820646175207261206A
:1044E0006375612054696D657220342E0A000000E6
:1044F0004C6F693A204B686F6E6720746865206264
:104500006174206461752074616F2078756E672016
:1045100050574D207472656E206B656E682025645F
:10452000206375612054696D657220342E0A000085
:1045300010B500290AD00878002807D0054878442B
:10454000FCF71AF8002801D0002010BD024878447A
:1045500010BD0000461400003E14000010B591EAA2
:10456000030F48BF83F0004300F1CE84841A71EB3F
:10457000030C05D2121943EB0C03001B61EB0C0179
:10458000DFF824E14FEA1154A4EB135C1EEA430F59
:1045900018BF9EEA445F73D023EA0E03DCF1200EBD
:1045A00021EA045143F4801332D322FA0CFE10EBBB
:1045B0000E0023FA0CFE41EB0E01CCF1200E03FAA3
:1045C0000EFE10EB0E0051F10001B1F5801FCCF191
:1045D000200E32D201EB045112FA0EF2BDE8104067
:1045E00058BF7047401C38BF5FEA420218BF70478F
:1045F000002814BF20F0010041F100014FEA4103FF
:1046000013F5001F38BF7047A1F1C04100F046BB51
:10461000012A43EB0302ACF1200CDCF11F0E32BF88
:104620004FF0000E23FA0CF310EB030041EB0451A2
:10463000B4EB115FD0D0A1EB045101F58011490812
:104640005FEA300001EB04510ED350F1000038BF97
:1046500012FA0EFE08D1BDE81040C9E7401C38BF71
:104660005FEA4202CAD1C3E7BDE810404FEA410306
:1046700013F5001F38BF7047A1F1C04100F00EBB19
:104680009EEA445F08D011EA5E0FBDE8104004BF07
:1046900001F0004100207047BDE8104070B500F007
:1046A000AFFA00BF64FBBE3E0000E0FF02494FF0DE
:1046B000000001F018B800BF0000F87F491058BF93
:1046C000C1F140415B1058BFC3F140438B42EFF34F
:1046D000008070472DE9C04130B4DFF8A0C23CEA49
:1046E000111418BF3CEA131400F0EC8081EA0305B2
:1046F0001CEA111444EAD57418BF1CEA131500F023
:10470000C780A4EB05044FF0004545EAC12145EA06
:10471000C32341EA505143EA525304F17F74994252
:1047200004F500344FEAC0204FEAC22208BF90428D
:1047300000F09C804FEA13650FF24016765D4FEA59
:10474000134506FB05F7C7F1807706FB07F74FEA2D
:10475000D737A7FB03687642C8F58038A7FB06CE9B
:1047600038BFA8F1010807FB08E64FF0000EA6FBD2
:10477000028CE6FB03CEDCF1000CCEF1004E38BF1C
:10478000AEF1010EA6FB0C584FF000074FF00005EC
:10479000E6FB0E87A1FB08C6A0FB07CE16EB0E06B4
:1047A00045F10005E1FB076515F1E04E7EBFA4F57C
:1047B00080345FEA46066D4116F1800745F1000539
:1047C0004FEA17274FEA066647EA0567A6F1DE4675
:1047D000B6F1805F4FEA15251FD9384624F0010C49
:1047E00005EBC471BCF1FE6F01EB0C1102D8F0BCFB
:1047F000BDE8008124425CBF01F5801E9EEAC47FB3
:1048000002D4F0BCBDE80081244238D4F0BCA1F150
:10481000C041BDE8004100F041BA4FEAD22242EA6D
:1048200043524FEAD323A7FB02864FEAD02040EA47
:10483000415007FB03661EEA0E0F4FEAD12105FB2C
:10484000026658BFA6EB0056B6EB00564FEA520E72
:104850004EEAC37E18EB0E0E56EB530EBDD518EB89
:1048600002085E417F1C55F10005B6E74FF4801544
:104870004FF000074FF000064FF00008ADE7F0BC26
:104880004FF0000001F1C04101F00041BDE800819E
:1048900011EA0C1F0CEA131500D00CE013EA0C1FF0
:1048A00000F025804FF00000F0BC81EA030101F028
:1048B0000041BDE80081F0BCBDE8004181EA030190
:1048C00000F0ECB9F0BCBDE8004170B500F098F91B
:1048D000097EFC3E00F007B881EA03014FF00000BA
:1048E00001F00041704781EA030100F0D7B9F0BC44
:1048F000BDE800414FF0000021497047FFFDFBF982
:10490000F7F5F4F2F0EEEDEBE9E8E6E4E3E1E0DE02
:10491000DDDBDAD8D7D5D4D3D1D0CFCDCCCBCAC874
:10492000C7C6C5C4C2C1C0BFBEBDBCBBBAB9B8B79B
:10493000B6B5B4B3B2B1B0AFAEADACABAAA9A8A88E
:10494000A7A6A5A4A3A3A2A1A09F9F9E9D9C9C9B5C
:104950009A99999897979695959493939291919007
:104960008F8F8E8E8D8C8C8B8B8A89898888878798
:104970008685858484838382828181800000FF070D
:104980000000F87F4FEA1153A3F58063D3F11E03B3
:10499000A8BFD3F1200C08DB4FF0004242EAC1224D
:1049A00052EA505232FA03F0704709420BD4102BEE
:1049B000C4BF0020704703F5787CBCF1FF3F05D0F1
:1049C0004FF0FF3070474FF00000704770B500F0B7
:1049D00017F900BF4992248000207047F0E710F0DB
:1049E000004248BF4042B0FA80F310FA03F10AD007
:1049F000C3F11D0303F580634FEA415002EB0352FC
:104A000002EBD12170474FF000007047B0FA80F3FD
:104A100010FA03F10AD0C3F11D0303F580634FEAD6
:104A200041504FEA035202EBD12170474FF0000092
:104A30007047000051EA030C17D41CF5801F58BFC3
:104A4000BCF5801F00F10680994218BF704708BF6F
:104A50009042704707D711F5801F58BF13F5801F8C
:104A600019D499427047894270471CF5801F08D5B8
:104A7000BCF5801FF7D58B4218BF704708BF824234
:104A800070474FF4001C1CEB410F38BF1CEB430F69
:104A900001D28B42704770B500F0B2F89224490001
:104AA0004FF000514FF08053FFF708BEDFF848C1C8
:104AB00070B51CEA111E1EBF1CEA13159EEA0C0FEE
:104AC00095EA0C0F00F06F8081EA030423EA4C138F
:104AD0004EEAD47E21EA4C1141F4801143F4801354
:104AE000AE44A1FB024CA0FB0365AEF17F7E3619FC
:104AF00055EB0C05A1FB034C4CF10003A0FB021C81
:104B000016EB0C06654153F10003094218BF46F04D
:104B1000010613F4007F0BD14FEA03314FEA053051
:104B2000340341EA155140EA16506FF003020AE0DF
:104B30004FEAC3214FEAC520F40241EA555140EA49
:104B400056506FF0020202EB2E4201EB025585EA4D
:104B5000CE710AD05FEA440C18BF24F0004450F133
:104B6000000041F1000120EAD47040F2FE7C624571
:104B700000D270BDA84214BF4FF080444FF04044B3
:104B8000002E08BF0024BEF1806FA8BFA1F1C04174
:104B9000BDE8704080F282804FF0000001F1C0411A
:104BA00001F0004170479EEA0C0F0CEA131518BF84
:104BB00095EA0C0F06D04FF0000081EA030E0EF0CC
:104BC000004170BD00F01CF88900013E00F007B8FC
:104BD00000F009B84FEA430C5FEA5C5C08D081EA58
:104BE000030100F05BB84FEA410C5FEA5C5CF6D170
:104BF0004FF00000014970470000FF070000F87FF8
:104C00000EF1020E2EF0030E5EF8046B364205D450
:104C1000012A43EB030515F5001F12D8012841EBCB
:104C2000010C1CF5001F0CD80ED14FEAD17C15F5F4
:104C3000001F0CEB4C0C0CF1020C08BF4CEBD37CAE
:104C400004E04FF0080C01E04FEAD37C0CEB4C057C
:104C500026FA05F606F00706B6F1040C06D20EEBAE
:104C6000860CBDE870404CF0010C6047DFE80CF0AA
:104C7000090B02024FF000414FF00000A1F50021A6
:104C800070BD19461046012851EB010418BFD4F538
:104C9000001484BF002001F0004170BD0808A0F599
:104CA00000114FEA3101704753EA010C17D41CF58B
:104CB000801F58BFBCF5801F00F106808B4218BFD3
:104CC000704708BF8242704707D713F5801F58BF4F
:104CD00011F5801F19D48B4270479B4270471CF519
:104CE000801F08D5BCF5801FF7D5994218BF7047C3
:104CF00008BF904270474FF4001C1CEB430F38BFB5
:104D00001CEB410F01D2994270470FB40CBC03BC9D
:104D1000FFF7C1BE91EA030F10B581F000413FF5E6
:104D200025AC83F0004300F0EFB800002DE9F0411E
:104D300001F5801CBCF5001FC0F2C3804FEA115C76
:104D400021EA0C510CF1FD0C41F480115FEA5C0C7E
:104D50000CF5C07C01D3400049413DA4890241EAE1
:104D6000905187028E0E0A0CA45D04FB04F602FB30
:104D700006F6C6F14046A4FB0662F60D46EA422658
:104D800006FB06F4A4FB01235242C3F1404338BFA3
:104D90005B1EA6FB02420024E6FB0324D20B42EA80
:104DA0004446A6FB0623A1FB02E2A3FB07E4A418EA
:104DB0004FF0000252F10002E3FB01426442C2F1F3
:104DC000404E38BFAEF1010EA6FB04234FF00002A7
:104DD000E6FB0E32A2FB03464FF00004B61954F175
:104DE0000004E2FB0264A1FB06E6A4FB07E816EB65
:104DF00008064FF0000858F10008E4FB016876420D
:104E0000C8F1405838BFA8F10108A2FB06E4A3FB93
:104E100008E52D194FF0000454F10004E2FB08549A
:104E2000A1FB05E6A7FB04E818EB06084FF0000617
:104E300056F10006E1FB048618F1200556F1000644
:104E4000A809A8F11B08B10908F03F08B8F10A0F3A
:104E500040EA86601CD901EB0C51BDE8F08100BF2F
:104E6000FCF5EEE8E2DDD8D3CFCBC7C3C0BDB9B601
:104E7000B4B1AEACA9A7A5A3A19F9D9B9A98969506
:104E80009392908F8D8C8B8988878685848382818D
:104E9000A0FB006800FB01F208EB4208B8EB872892
:104EA00007D5341858EB0104D5D5401C51F1000149
:104EB000D1E7341A78EB0104CDD4401E71F1000122
:104EC000C9E75FEA4C0C5FEA9C5C0DD105D34FF05B
:104ED000000001F00041BDE8F081BDE8F04170B58F
:104EE000FFF78EFE6DDBFFBEBDE8F0414FF0000026
:104EF000004970470000F87F10B591EA030F48BFE2
:104F000083F000433FF532AB841A71EB030C07D2F8
:104F100012198CF0004C43EB0C03001B61EB0C01ED
:104F2000DFF8A4E14FEA1154A4EB135C1EEA430F2F
:104F300018BF9EEA445F00F0B08023EA6E0352423D
:104F400021EA0451C3EB6E0338BF5B1EDCF1200E77
:104F500025D322FA0CFE10EB0E0043FA0CFE41EBB7
:104F60000E01CCF1200E03FA0EFE10EB0E0051F1F3
:104F70000001CCF1200E29D412FA0EF201EB0451FB
:104F8000BDE8104058BF7047401C1CBFB2F1004F35
:104F9000704700280CBF491C20F00100704712EB3D
:104FA000020E43EB030218BF4FF0010E4EEA42021D
:104FB000ACF1200CDCF11E0E54D943FA0CFE10EBC0
:104FC0000E0051F1FF31CCF11E0ED5D50EF1010EC0
:104FD00012FA0EFE404141EB010101EB445C5FEA35
:104FE0005C5C10D910EBDE7001EB045138BFBEF1F0
:104FF000004FBDE8104018BF704700280CBF491C87
:1050000020F00100704730D24FEAD42C11F5001186
:1050100024F400641BD0B1FA81F20B3AA41AA41E46
:10502000D2F12003914030FA03F31943904001EB91
:10503000CC71002C01EB0451BDE81040A8BF7047B3
:1050400001F1C0414FF0000001F000417047B0FA9B
:1050500080F310FA03F100D110BDE41A173C4805A3
:10506000C90AE4E701EB045110BD491001EB0451FA
:10507000BDE810404FEA300002E04FF000017047F9
:105080004A0008BF0042F8D0B2F5001F28BF7047A1
:1050900001F000414FF0000070479EEA445F07D0E6
:1050A00011EA5E0FBDE8104004BF002100207047E8
:1050B000BDE8104070B5FFF7A3FD00BF40DFF63E2E
:1050C00083F00041104670470000E0FF43004FEAC4
:1050D000D30C4FEA3C0C43401FBF40070CF160511A
:1050E00013F0FE4F70471CF0006F03D100200CF04E
:1050F000004170470CF0004343EA507010B540EA9D
:10510000CC0000F02EFA00BF000000924FEA000130
:10511000FFF7C4BD4FF000414FF00000A1F50021A2
:105120007047000090EA010F48BF81F0004100F194
:105130006A82421A3CBF801A89184FEAD0524FF057
:105140007F4C1CEA410FA2EBD15318BF9CEA026FBF
:1051500000F03B804FF0004C4CEA00204CEA01216B
:1051600021FA03FC10EB0C0C1ED202F1FF325FEAB5
:105170001C2040EBC25038BF70471CF07F0F4FEA35
:10518000400C18BFBCF17F4F38BF7047C3F12003FC
:10519000994008BF20F00100BCF17F4F38BF704735
:1051A000A0F1C04000F023BA4FEA3C00000A40EBF7
:1051B000C25028BF1CF0FF0F4FEA400CE6D018BFCA
:1051C000BCF17F4F38BF7047EAE79CEA026F05D019
:1051D00010EA5C0F08BF00F00040704710B500F007
:1051E000C0F900BF64FBBE3E014800F07CBA00BFBE
:1051F0000000C07F401058BFC0F14040491058BF68
:10520000C1F140418142EFF3008070474FF47F0CC1
:105210001CEAD0121EBF1CEAD11392EA0C0F93EACB
:105220000C0F00F0858090EA010F48BF42F48072B5
:1052300040F4000C41F400002CF07F4120F07F404E
:1052400000B58142A2EB03020FF2081CACEB504EFA
:10525000C0F100009EF800E04FEA4E0E00FB0EFC8D
:1052600038BF49004FEA2C1C02F5FA020CFB0EF382
:105270004FEACE1E4FEA112C4FEAC1210EEB635EBE
:1052800042EB22420EFB0CFC4FEA1C5300FB0311C5
:105290004FEA112C4FEA01310EFB0CFC4FEADC4CBB
:1052A00000FB0C11C14228BF09184CEB03335DF819
:1052B00004EB10EB410143EBC250B2F57C0F38BF59
:1052C000704729D512F0F00F1CBF00F1C04000F06C
:1052D00000407047008182838485868788898B8C13
:1052E0008D8E8F919293959697999A9C9D9FA0A24F
:1052F000A3A5A7A8AAACAEB0B2B3B5B7B9BCBEC09F
:10530000C2C5C7C9CCCED1D4D7D9DCDFE2E6E9EC3F
:10531000F0F3F7FAFE0000004FEA400C0CF1807C3D
:10532000BCF17E4F28BF7047B0F1C04000F05FB9BC
:1053300090EA010F0CEAD11348BF42F48072624533
:1053400038BF634507D213F47F0F16D080EA0100FF
:1053500000F00040704710B500F003F9097EFC3EF4
:1053600000F005B880EA010000F00040704780EAD4
:10537000010000F0004000F03AB912F47F0F04BFC2
:105380000248704780EA010000F031B90000C07F98
:10539000C10DD1F19E0206DB4FEA002343F000432A
:1053A00023FA02F07047004207D54FEA4001B1F1FD
:1053B000FE4F02D24FF00000704710B500F0D1F858
:1053C00049922480002070476FEA20007047000057
:1053D000B0FA80F310FA03F2C3F19D030AD0D905A5
:1053E00001EB1220530638BF704700F1010008BFDF
:1053F00020F001007047000050EA010C00F113801A
:105400001CF5000F58BFBCF5000F01D4884270474F
:1054100007D710F5000F58BF11F5000F15D48842BB
:105420007047894270471CF5000F04D5BCF5000F8A
:10543000F7D5814270474FF0807C1CEB400F38BF9E
:105440001CEB410F01D28142704710B500F089F882
:10545000922449004FF000504FF08051FFF7CABE30
:105460004FF47F0C1CEAD0121EBF1CEAD11392EA43
:105470000C0F93EA0C0F00F0478090EA010F48BF31
:1054800042F480724FF0004C4CEA00204CEA0121BB
:1054900002EB0302A0FB0113A2F50002002918BFD2
:1054A00043F001035B0028BF4FEA330342EB224283
:1054B0005FEA132C4CEBC2502EBFBCEB436FB2F52E
:1054C0007C0F70474FEA036CBCF1004F08BF20F01F
:1054D0000100B2F57C0F38BF70470BD582F0FF0298
:1054E00012F5803FC8BF704700F1C040D8BF00F040
:1054F0000040704700F5000C5FEA4C0C48BF704755
:10550000B0F1C04000F073B890EA010F0CEAD1137B
:1055100048BF42F48072624538BF634504D280EAD6
:10552000010000F00040704710B500F01AF800BF0D
:105530008900013E00F007B800F009B85FEA410CAD
:105540005FEA1C6C08D080EA010000F050B85FEA06
:10555000400C5FEA1C6CF6D14FF00040A0F58000D3
:1055600070470EF1020E2EF0030E5EF8044B24423B
:1055700004D44FEA4102B2F17F4F11D84FEA400301
:10558000B3F17F4F0CD80ED14FEAD07CB2F17F4FF0
:105590000CEB4C0C0CF1020C08BF4CEBD17C04E082
:1055A0004FF0080C01E04FEAD17C0CEB4C0324FADD
:1055B00003F404F00704B4F1040C06D20EEB840CDF
:1055C000BDE810404CF0010C6047DFE80CF0070824
:1055D00002024FF00040A0F5800010BD08464200D6
:1055E00018BFD2F1807288BF00F0004010BDFF21CB
:1055F00041EAD050C005704790EA010F48BF81F0E2
:1056000000413FF596AD421A04D882F00042A0EB6B
:10561000020011444FEAD0524FF07F4C1CEA410F78
:10562000A2EBD15318BF9CEA026F4AD04FF0004C56
:105630004CEA00204CEA012121FA03FCB0EB0C0CEF
:105640000FD412F0FE0F36D05FEA4C001DD50012C9
:1056500040EBC25038BF70471CF03F0F18BF704777
:105660000BE0A2F101025FEA1C2040EBC25038BF00
:1056700070471CF07F0F18BF7047C3F1200399409B
:1056800014BF401E20F00100704780084FEA12232B
:1056900008BF7047B0FA80FCA2EB0C02CCF1280CDA
:1056A00060FA0CF093EA122F04BF00EBC25070476F
:1056B0004FEAC3707047130A5FEADC1008BF7047F7
:1056C000F6E79CEA026F04D010EA5C0F08BF0020E6
:1056D000704710B5FFF745FF40DFF63E81F0004010
:1056E0007047FBF7C9B80CF00F03092B08BF08205F
:1056F00000F07F800A2B0BD0082B18BF704708BF23
:105700001CF0400F0AD04FF000004FF0000170472E
:105710001CF0400F18BF4FF0004070471CF0100FF6
:1057200008D020F0704300F07F4242EAD3014FEAF4
:105730004370704700F0604021F07F4242EA00026F
:1057400001F07F4040EA727070474FF0FF0C4CF45C
:10575000E06C1CEA11531CBF9CEA030C9445C2BFC9
:10576000DA4201EB02517047002B0DD0BCF1000F63
:105770000FD0002A01F00041A4BF41F0E04141F008
:105780007F614FF00000704701F000414FF00000D2
:10579000704750EA01334FF09B0C18BF4CF0806CFF
:1057A0007EF484AF70474FF0FF0212EAD0521CBF64
:1057B00092F0FF038B42C2BFD14200EBC150704751
:1057C000002A0AD0002B0BD0002900F00040A4BF13
:1057D00040F0FE4040F40000704700F00040704789
:1057E00043024FF00B0C18BF4CF0806C7FF4FCAC04
:1057F00070471CF4801F11D01CF4E02F03D06FEA17
:10580000CC31490070474FF04050EFF3008222F056
:10581000704242EA000282F3008870474FF00000B5
:1058200070470000000000000000010203040607AA
:10583000080900000000010203040000000000004D
:10584000000000000000F03F000000000000F83FF2
:1058500000000000000000000000004003B8E23F2C
:10586000000000000000000006D0CF43EBFD4C3EDE
:10587000033333333333E33FFFAB6FDBB66DDB3FD3
:105880004D268F515555D53F01411DA96074D13F1B
:1058900065DBC9934A86CD3FEF4E454A287ECA3F15
:1058A0003E5555555555C53F93BDBE166CC166BF97
:1058B0002CDE25AF6A56113FF16BD2C541BDBBBE90
:1058C000D0A4BE726937663E0000000000000000F0
:1058D00002400000000000A00000000005400000A1
:1058E000000000C8000000000C4000000000409CC8
:1058F00000000000194000000020BCBE00000000B5
:1059000034400000BFC91B8E00000004B5400000F9
:10591000504BCFD06607E2CF010000006C41000081
:105920003E8251AADFEEA73401000000D9420000F8
:10593000DCB5A0E23A301F97FFFFFFFFB44500003F
:10594000FD25A0C8E9A3C14FFFFFFFFFFF3F0000F7
:105950000000008000000000FF3F00000000008009
:1059600000000000A05900080000002030000000E6
:1059700028010008D059000830000020B8070000B6
:10598000440100081C00000043000000F8FFFFFF76
:105990000C0000000E0000000F0000002E000000B0
:1059A00000000000000000000000000000000000F7
:1059B00001000000000000001400000000000000D2
:1059C0000100000010000000000000000024F400AE
:04000005080000ED02
:00000001FF
