:020000040800F2
:10000000A025002045020008EB2E0008E32A000886
:10001000E92E0008871600086D3500080000000072
:10002000000000000000000000000000AD0100081A
:100030000918000800000000F10100084330000822
:100040005F0200085F0200085F0200085F0200080C
:100050005F0200085F0200085F0200085F020008FC
:100060005F0200085F0200085F0200085F020008EC
:100070005F0200085F0200085F0200085F020008DC
:10008000991600085F0200085F0200085F0200087E
:100090005F0200085F0200085F0200085F020008BC
:1000A0005F0200085F0200085F0200085F020008AC
:1000B0005F0200085F0200085F0200085F0200089C
:1000C0005F0200085F0200085F0200085F0200088C
:1000D0005F0200085F0200085F0200085F0200087C
:1000E0005F0200085F0200085F02000800F002F8EB
:1000F00000F04DF80AA090E8000C82448344AAF175
:100100000107DA4501D100F042F8AFF2090EBAE872
:100110000F0013F0010F18BFFB1A43F0010318473B
:10012000E065000000660000103A24BF78C878C17E
:10013000FAD8520724BF30C830C144BF04680C60ED
:10014000704700000023002400250026103A28BF35
:1001500078C1FBD8520728BF30C148BF0B60704739
:10016000662906F00A81642900F0FC80732900F0FA
:100170006685002070471FB500F078FD0400002060
:10018000002105F021F8E0601FBD10B510BD00F0A2
:1001900075FE1146FFF7EFFF03F088FC00F093FEB9
:1001A00003B4FFF7F2FF03BC00F096FE224B196880
:1001B0000868B0E8F00F80F30988BFF36F8F4FF045
:1001C000000080F311884EF00D0E70470000000013
:1001D00006480068006880F3088862B661B6BFF31D
:1001E0004F8FBFF36F8F00DF00BF00BF08ED00E04F
:1001F000EFF30980BFF36F8F0F4B1A6820E9F00F00
:10020000106008B54FF0500080F31188BFF34F8F96
:10021000BFF36F8F04F014FE4FF0000080F31188DD
:10022000BDE8084019680868B0E8F00F80F3098855
:10023000BFF36F8F704700BF48000020EFF30580C9
:10024000704700000948804709480047FEE7FEE77D
:10025000FEE7FEE7FEE7FEE7FEE7FEE7FEE7FEE776
:1002600004480549054A064B70470000B9300008AC
:10027000ED000008A01F0020A0250020A0210020E4
:10028000A02100200FB4044910B503AA029800F081
:10029000DBFC10BC5DF814FB080000200FB41CB59B
:1002A000074B06AA7B4469460090059800F09DFC28
:1002B0000020694600F0ACFC1CBC5DF814FB00009B
:1002C0006909000070B5044685690068C10601D55A
:1002D000302600E02026C00707D070BDD4E90121F8
:1002E00030469047206A401C20626D1EF6D570BDD6
:1002F00070B5044685690078C00707D170BDD4E9A0
:10030000012120209047206A401C20626D1EF6D5F6
:1003100070BD70B50C460546012A05D028788006C8
:1003200000D5EA69002302E0012305E05B1C93424B
:1003300002D2E05C0028F9D1A869E618C01AA861C9
:10034000286A184428622846FFF7BCFF04E0D5E974
:10035000012114F8010B9047B442F8D32846FFF767
:10036000C7FF70BD2DE9F0410646002410687529CD
:10037000314616A510D0AFF30080002802DA4042C3
:1003800013A507E031688A0701D512A502E04907E5
:1003900004D511A5012401E0AFF3008000210A2259
:1003A00006F1240709E0B0FBF2FCB0FBF2F302FB1C
:1003B0001C00303078541846491C0028F3D12346DD
:1003C0002A463046BDE8F04100F0A2B90000000026
:1003D0002D0000002B000000200000002DE9F04758
:1003E0004FF0000A89460446C0F820A02046E16884
:1003F0008847002876D0252806D0D4E901219047E7
:10040000206A401C2062F1E7E16820460025884709
:10041000C4F81CA006460027C4F818A02A2E09D04C
:10042000304603F03DF938B304EB8708303EC8F896
:10043000186019E059F8041B204604EB870291610B
:10044000E1688847012F064618D1E069002820DAC4
:1004500025F020051DE0D8F8180000EB800006EB21
:1004600040003038C8F818002046E1688847064642
:1004700003F016F90028EED1012F0AD02E2E08D154
:100480002046E16888477F1C0646022F45F020057C
:10049000C4DBA069002803DA404245F00105A061F1
:1004A000E80701D025F01005B6B1A6F141001928E2
:1004B00002D8203645F400654A463146204625607C
:1004C0004D46FFF74DFE58B1012806D0ED1D25F031
:1004D000070000F1080989E704E005F1040985E750
:1004E00030468AE7206ABDE8F08710B5431C02E079
:1004F00010F8011B71B18107FAD14FF0013202C827
:100500008C1A8C4314EAC211F9D0C01A0A0603D01F
:10051000C01E10BDC01A10BD0A0401D0801E10BD3F
:100520000902FCD0401E10BD10B5203AC0F00B806F
:10053000B1E81850203AA0E81850B1E81850A0E8E7
:100540001850BFF4F5AF5FEA027C24BFB1E8185041
:10055000A0E8185044BF18C918C0BDE810405FEAB1
:10056000827C24BF51F8043B40F8043B08BF70472D
:10057000D20728BF31F8023B48BF11F8012B28BF32
:1005800020F8023B48BF00F8012B70474FF00002F3
:100590000429C0F0128010F0030C00F01B80CCF195
:1005A000040CBCF1020F18BF00F8012BA8BF20F803
:1005B000022BA1EB0C0100F00DB85FEAC17C24BF57
:1005C00000F8012B00F8012B48BF00F8012B704701
:1005D0004FF0000200B5134694469646203922BFDC
:1005E000A0E80C50A0E80C50B1F12001BFF4F7AF27
:1005F000090728BFA0E80C5048BF0CC05DF804EB09
:10060000890028BF40F8042B08BF704748BF20F876
:10061000022B11F0804F18BF00F8012B704710B566
:10062000044610F0030F08BF11F0030F40F01580CF
:100630004FF0013E121FC0F20E8051F8043BA3EBB5
:100640000E0C2CEA030C1CEACE1C08BF40F8043B3D
:10065000F0D0A1F1040102F10402521E08DB11F8EE
:10066000013B002B00F8013BF7D11146FFF78EFF4D
:10067000204610BD4FF0013C50F8042B51F8043BCC
:100680009A4221D1A2EB0C03934313EACC1317D166
:1006900050F8042B51F8043B9A4215D1A2EB0C03FD
:1006A000934313EACC130BD150F8042B51F8043BBD
:1006B0009A4209D1A2EB0C03934313EACC13DBD08B
:1006C0004FF00000704700BFD01A01BAB1FA81F1B3
:1006D00001F0180122FA01F0CB40C1F12001DBB298
:1006E000C0B2C01A2CFA01F3D11A914311EAC31116
:1006F000E6D1704770477047704710B500F0BAFAFE
:10070000006810BD10B5044600F0B4FA046010BDD6
:100710002DE9F0470D4699469246044600F124081B
:100720000168880604D5E06921F01001216000E02D
:100730000120A84201DD471B00E00027A1697A19CA
:1007400002EB0900081AA0612078C00602D42046F6
:10075000FFF7B8FD002608E0D4E901211AF80600E9
:100760009047206A401C761C20624E45F4DB2078BE
:10077000C0060AD52046FFF7A5FD06E0D4E9012111
:1007800030209047206A401C2062381EA7F10107E4
:10079000F4DC07E0D4E9012118F805009047206A4D
:1007A000401C2062281EA5F10105F3DC2046FFF75E
:1007B0009FFD2078000602D50220BDE8F0870120C9
:1007C000FBE770472DE9FF4F0C461E464FF0FF3701
:1007D0008BB0D2E90001DDF860800A908A46C1F34F
:1007E0000A5505B93D46002108464FF00000BAF110
:1007F000000F00F4400005DA00EB80004FF44001E8
:1008000001EA50004FEA9059B9F1010F00DDB946F5
:100810000A9850EA4A000ED044F61050A5F2FF356F
:1008200045432F14B8F1000F1ED07542291E1EDD5E
:10083000C9F100021CE0B8F1010F4FF0000001D037
:10084000302103E0F24305E02154401CB042FBDBC1
:1008500030460022002121540B99C1F80880C1E9DB
:1008600000200FB0BDE8F08FBD1B6D1CDEE74A46CF
:1008700000DA694206A800F087FA06AB93E80700A1
:1008800003AB83E8070050460A9900F02CFB8DE883
:100890000700A0F500501F3800900398002D0ADDD6
:1008A00042F21F014A460844002303A90390684608
:1008B00000F095FD09E0A0F500504A461F380023DE
:1008C00003A90390684600F09FFD8DE8070000042F
:1008D000000C03D04FF0FF30410800E01046B8F1A3
:1008E000000F03D00022009215461EE0751E05D4AD
:1008F00000F0C4F9303262556D1EF9D5B3460122BD
:10090000084302D000227F1C04E02078302801D167
:1009100000227F1E002A099784D01DE0112D07DADE
:1009200000F0ACF9303262556D1C50EA0102F5D18D
:10093000084302D00098C8B10EE00021681E05E00F
:10094000235C625C63542254401E491C8142F7DBE5
:10095000AB46A81B401E0990002004F80B000B9822
:10096000099AC0F80880C0E9002B7AE711264FF0F9
:10097000000857E72DE9F04F88460446D21D22F0C3
:10098000070191B0D1E90001CDE90A0102F0EFFDC4
:1009900002460B98C00F01D02D2007E02068810788
:1009A00001D52B2002E0202101EAC000032A099092
:1009B00001D0072A05DB03464146204600F0A4F992
:1009C0000BE12078800601D5E06900E00620B8F14F
:1009D000650F814606D0B8F1660F18D0B8F1670FE1
:1009E00070D131E00020B9F1110F009001DB11232B
:1009F00001E009F101030AAA01A90CA8FFF7E2FE30
:100A0000DDE90C70002609F10105834647E001206D
:100A10004B4600904FF000470AAA01A90CA8FFF727
:100A2000D1FEDDE90DB00C995D46002610B909F143
:100A300001000D18B9EB050003D4C0F1FF3609F130
:100A40000105A5EB09002BE0B9F1010F01DA4FF028
:100A500001090020B9F1110F0090484601DD112372
:100A600000E003460AAA01A90CA8FFF7ABFEDDE9E6
:100A70000C704D4600268346207800070AD4AB450B
:100A800000DA5D4601A8012D04DD411911F8011CB1
:100A9000302907D04F4502DA17F1040F04DA01209C
:100AA00082460FE06D1EEEE7002F02DCED1B3E4498
:100AB00003E0781CA84200DD7D1CB81B00F1010A90
:100AC0004FF000472078000703D4AA4501DB4FF020
:100AD000FF3A0021B7F1004F0DF143088DF84310A4
:100AE00024D002202B23002F01DA7F422D230A215C
:100AF000021EA0F1010000DC5FB197FBF1FC97FB47
:100B0000F1F201FB1C7C17460CF1300C08F801CD0A
:100B1000EEE7A8F1010003702188090501D5452100
:100B200000E06521A0F1010800F8011C09980FA957
:100B3000A1EB0807FF1D00B10120411901EBEA708C
:100B4000A1693844081A401EA0612078C00602D46A
:100B50002046FFF7B7FB099828B1D4E90121904757
:100B6000206A401C20622078C00622D52046FFF76C
:100B7000A9FB1EE0002E04DBB34502DD01A8805D69
:100B800000E03020D4E901219047206A401C206217
:100B9000761CAAF101005FEA000A0AD100F066F8AB
:100BA000C0680168405CD4E901219047206A401C7C
:100BB0002062281EA5F10105DCDC07E0D4E9012153
:100BC00018F8010B9047206A401C2062381EA7F1DC
:100BD0000107F3DC2046FFF78BFB032011B041E651
:100BE00001694A1C02610878704700B58FB0CDE9F1
:100BF00001310021059105497944CDE903101146E1
:100C00006846FFF7EBFB0FB000BD0000E5FFFFFFFC
:100C10000A6802F8010B0A60704710B5436913B106
:100C2000AFF3008001E0FFF774FB012010BD1278E4
:100C300000F124010A7000224A700122EDE71168D8
:100C40004FF0FF32E9E70000074B70B50D467B44DB
:100C5000FFF7CBFF0446284600F008F910B14FF02B
:100C6000FF3070BD204670BD732C000000487047F7
:100C70005C1F0020004870473C1F002030B5B0F1D9
:100C80000A024FEA900E71F100034EEA817EB0EB4A
:100C90000E0061EB91014FEA101E4EEA017E10EB4F
:100CA0000E0041EB11114FEA102E4EEA016E10EBCF
:100CB0000E0041EB11214FEA104E4EEA014E10EBAF
:100CC0000E0041EB1141401841F100014FEAD00004
:100CD00040EA41704FEAD10110EB80054FEA8104F0
:100CE00044EA907444EB01046D1944EB0404521B74
:100CF000A3414FF0000348BF0A3200D530BD401C6D
:100D000041F1000130BD00002DE9F0411F460446CD
:100D100003260168072A01F4006004DB08B116A568
:100D200005E016A503E008B115A500E015A521F022
:100D300010002060A069C01EA0610FB1401EA0611C
:100D40002046FFF7BFFA4FB1D4E90121384690475A
:100D5000206A401C2062C01C206206E0206AFAE77C
:100D6000D4E9012115F8010B9047761EF8D22046F0
:100D7000FFF7BEFABDE8F0814E414E006E616E0095
:100D8000494E4600696E66002DE9F04781461646D9
:100D90008AB0354878440DC88DE80D003248784453
:100DA000801C03AC0DC884E80D0041F69B3008445C
:100DB000372190FBF1F290FBF1F5A5F1800501FBE5
:100DC00012041B3C02D56442012000E00020DFF841
:100DD00098A080460027FA44AAF1BE0A0EE0E00778
:100DE0000AD03246684607EB470101230AEB81012E
:100DF00000F00AFB8DE8070064107F1C002CEED188
:100E0000194F7F44AE3F19E0E80715D007EB0410F7
:100E10000DF1180A90E80E008AE80E00C068F04252
:100E200001D1981908903246012306A903A800F0C1
:100E3000EBFA03AB83E807006D10641C002DE3D1CF
:100E40004FF0010332466946B8F1000F03A802D003
:100E500000F0C5FA01E000F0D7FAC9E90001C9F8CD
:100E600008200AB0BDE8F087F4580000007B00F0CD
:100E700080007047004870473C1F00207546FFF710
:100E8000F9FFAE4605006946534620F00700854647
:100E900018B020B5FFF7E4F9BDE820404FF0000698
:100EA0004FF000074FF000084FF0000B21F0070152
:100EB000AC46ACE8C009ACE8C009ACE8C009ACE895
:100EC000C0098D46704710B50446AFF30080204638
:100ED000BDE81040FFF764B901491820ABBEFEE73A
:100EE0002600020070475FEA400C08BF91F0000F37
:100EF0004FEA8C234FEAC12243EA51514FEA1C507A
:100F000018BF00F5F0404FEA300018BF41F0004133
:100F10005FEA6C5C00F02980BCF1FF3F08BF40F045
:100F200080407047130C06BF12044FF0100C4FF0B6
:100F3000000C130E04BF12020CF1080C130F04BFB7
:100F400012010CF1040C930F04BF92000CF1020C7F
:100F5000D30F04BF52000CF1010C11464FF00002F8
:100F6000A0F11F00A0EB0C00704711F0004F08BF6C
:100F7000704731F000413FF4D5AF0B0C06BF0904B8
:100F80004FF0100C4FF0000C0B0E04BF09020CF1D7
:100F9000080C0B0F04BF09010CF1040C8B0F04BFEC
:100FA00089000CF1020CCB0F04BF49000CF1010CBD
:100FB000CCF12003A0EB0C0022FA03F302FA0CF2AE
:100FC00041EA030100F10100704720F07F4C80EA04
:100FD000030023F07F47ACEB070303F57C5300F0DD
:100FE000004003F1FF032DE980494FEA154B09B496
:100FF0004FEA144325EA0B4E24EA03480FF2042675
:1010000006EB132749083E785FEA320203FB0667C6
:10101000C7F5000707FB06F64FEA54374FEAD646F6
:1010200006F1020607FB066CCCF1005C4FEA1C4798
:101030002CEA074C07FB06F40CFB06F504EB1546FF
:101040004FEA961634BF00204FF000404FEAD137E8
:1010500006FB07FC4FEA1C4C0CFB0BF7D21B03FBF7
:101060000CF761EB07010CFB0EF7B0EB074072EBDE
:1010700017420CFB08F734BFA2EB0742B2EB074262
:1010800061EB17414FEA0C444FEA910706FB07FC5E
:101090004FEA1C4C0CFB0BF7B0EBC74072EB57321E
:1010A00003FB0CF734BFA2EBC742B2EBC74261EBC4
:1010B00057310CFB0EF7B0EBC70072EB57720CFB0D
:1010C00008F734BFA2EBC702B2EBC70261EB57715E
:1010D000039F4FEA816141EA921104EBCC044FEA8D
:1010E000D1374FEA826206FB07FC42EA90124FEAD0
:1010F00080604FEA1C4C0CFB0BF7D21B03FB0CF778
:1011000061EB07010CFB0EF7B0EB074072EB1742E7
:101110000CFB08F734BFA2EB0742B2EB074261EBCE
:1011200017414FEA8C554FEA910704EB9C2406FBCC
:1011300007FC4FEA1C4C0CFB0BF7B0EBC74072EB03
:10114000573203FB0CF734BFA2EBC742B2EBC742E6
:1011500061EB57310CFB0EF7B0EBC70072EB577227
:101160000CFB08F734BFA2EBC702B2EBC70261EB7E
:10117000577115EB4C254FEA816141EA92114FEA14
:1011800082624FEAD13742EA901206FB07FC44F133
:1011900000044FEA80604FEA1C4C0CFB0BF7D21B9B
:1011A00003FB0CF761EB07010CFB0EF7B0EB0740FC
:1011B00072EB17420CFB08F734BFA2EB0742B2EB0D
:1011C000074261EB174115EB1C154FEA813141EAEB
:1011D00092414FEA823242EA90424FEA80304FEA2F
:1011E0000C7644F1000448EA03434EEA0B484FF002
:1011F000000EB2EB080C71EB030724BF62463946C0
:101200004EEB0E0E4FF0000B0018524149414BEBD4
:101210000B0BB2EB080C71EB03077BF1000B24BF47
:10122000624639464EEB0E0E4FF0000B001852414D
:1012300049414BEB0B0BB2EB080C71EB03077BF155
:10124000000B24BF624639464EEB0E0E51EA0207F0
:1012500018BF46F0010616EB0E7655F1000254F168
:10126000000103D5BDE88901BDE80088BDE889011A
:10127000BDE80048B619524141EB0101A3F1010359
:10128000704780807F7E7D7C7B7A797877767675F3
:101290007473727171706F6E6E6D6C6C6B6A6A696B
:1012A0006868676666656464636362616160605F05
:1012B0005F5E5E5D5D5C5C5B5B5A5A59595858577E
:1012C00057565655555554545353525252515150E6
:1012D00050504F4F4F4E4E4D4D4D4C4C4C4B4B4B39
:1012E0004A4A4A494949484848474747474646467F
:1012F00045454544444444434343434242424241BA
:101300004141002B9C4630D477002BD01CB54FEACE
:10131000370703B44FF010004FF01001BAF1000F7F
:1013200006D0BCF1000FDCBF40F0080040F008011F
:101330004FF000000FBCBDE810400BF1010BBBF1FA
:10134000010F08BF5FEA170722BF12F1010211F176
:1013500001014FF0004143F1000300F0004043EA77
:1013600000007047F9D35708D0E746EA064613F164
:10137000400F4FEA16461FDD13F1200FDFBF164363
:101380000A46002120335B42BED0C3F1200746EA63
:10139000064602FA07F74FEA164646EA0706C3F181
:1013A000200722FA03F201FA07F721FA03F14FF0BE
:1013B000000342EA0702A7E746EA020646EA0646B3
:1013C0004FEA164646EA0106BCBF46EA0646360C18
:1013D0004FF000034FF000024FF0000194E72DE9B9
:1013E000804C9A46934670B491E8380007C831EAB9
:1013F000400C48BF34EA430C03D5FFF7E6FDFFF786
:1014000080FFF0BCBDE8008C2DE9804C9A469346E5
:1014100070B491E8380007C810F0804F08BF13F08F
:10142000804F03D100F005F8FFF76BFFF0BCBDE87B
:10143000008C20F07F4780EA030023F07F4C07EB0D
:101440000C03A3F57C5300F00040A3F1FE0392F0DF
:10145000000F00F0B38095F0000F00F077802DE9C9
:1014600001494FEA11404FEA144621EA004800FBC7
:1014700006FC24EA064708FB06F607FB08F800FB13
:1014800007F718EB06484CEB164C4FEA124B18EBDB
:1014900007484FEA15464CEB174022EA0B4E0BFB70
:1014A00006FC25EA06470EFB06F607FB0EFE0BFBC5
:1014B00007F71EEB064E4CEB164C4FF000061EEBEA
:1014C000074E4CEB174B18EB0B0840F1000018EBE4
:1014D0000E0B58EB000840F100008F1A4FF000018E
:1014E0003CBFC943661B14BFB5EB040C00213CBFD5
:1014F000C943F61B4FEA17444EEA8E0E27EA04450D
:101500004FEA1C4704FB07622CEA074C05FB07F770
:101510000CFB05F604FB0CFC16EB074642EB1742EE
:1015200016EB0C4642EB1C421BEB060658EB020284
:10153000414146EA9E0601D5BDE80189B6195241EE
:1015400041EB0101A3F10103BDE801894FEA144514
:101550004FEA114724EA054621EA074C05FB07F448
:1015600006FB07F70CFB06F105FB0CFC11EB074132
:1015700044EB17444FEA124711EB0C4144EB1C4477
:1015800022EA074C05FB07F206FB07F70CFB06F601
:1015900005FB0CFC16EB074642EB174216EB0C461C
:1015A00042EB1C456A1854F1000148BF7047B61958
:1015B000524141EB0101A3F10103704795F0000F87
:1015C00037D04FEA11424FEA144721EA024624EA93
:1015D000074C02FB07F106FB07F70CFB06F402FBC6
:1015E0000CFC14EB074441EB17414FEA154714EB91
:1015F0000C4441EB1C4125EA074C02FB07F506FBB6
:1016000007F70CFB06F602FB0CFC16EB074645EB56
:10161000174516EB0C4645EB1C42121951F100011F
:1016200048BF7047B619524141EB0101A3F10103D4
:1016300070474FEA14454FEA114724EA054621EA6C
:10164000074C05FB07F106FB07F70CFB06F24FF012
:10165000000605FB0CFC12EB074241EB174112EBB5
:101660000C4251EB1C4148BF7047921841EB0101FD
:10167000A3F1010370474FF4FA7402F019F8204601
:1016800002F074FAF9E7FEE74FF4FA7402F06AF830
:10169000204602F06BFAF9E7014800F0C1B80000FB
:1016A0008801002030B590F840500124AC40C56B53
:1016B0006C60046863604368102B036803D0996012
:1016C0000068C26030BD9A600068C16030BD000033
:1016D0002DE9F041164E4FF400770025394630468B
:1016E00001F098FC00244FF001083946304601F023
:1016F0009CFC00223946304600F0A9FA022002F094
:10170000CFF83946304601F085FC3946304600F0C6
:1017100099FA18B108FA04F02843C5B23C2002F047
:10172000BFF8641C082CE0DB2846BDE8F08100000F
:101730000008014070B5144D4FF40074214628464E
:1017400001F073FC00222146284600F080FA4FF495
:10175000F07002F0A5F82146284601F05BFC50200D
:1017600002F09EF82146284600F06CFA50B14FF086
:10177000FF3406A0FEF786FD4FF4C87002F090F823
:10178000204670BD0124F4E700080140202000003D
:101790002DE9F0411B4E07464FF4007529463046AF
:1017A00001F043FC00244FF0010800BF08FA04F0E8
:1017B00038422946304611D001F037FC0022294634
:1017C000304600F044FA012002F06AF8294630461B
:1017D00001F020FC322002F063F80DE001F025FC5E
:1017E00000222946304600F032FA322002F058F842
:1017F0002946304601F00EFC641C082CD6DBBDE8FF
:10180000F08100000008014070474FF47A7402F044
:1018100065F8204602F0AAF9F9E772B6FEE7000083
:101820002DE9F05FC16B0C6801680B68D0F840C00F
:10183000042202FA0CF2494DDFF824A1494E4A4F26
:10184000DFF828B1DFF828E122422CD05A072AD548
:101850000A68920603D40A6822F004020A6001684A
:10186000A94201D1042219E0514501D1402215E0DD
:10187000B14202D14FF4806210E0B94202D14FF47C
:1018800080420BE0594502D14FF4802206E07145B9
:1018900002D14FF4800201E04FF080622F490839F5
:1018A0004A60C16A3BE04FF0020808FA0CF818EAF7
:1018B000040F4FF000094FF0010235D05FEA837842
:1018C00032D50B689B0605D40B6823F00A030B6026
:1018D00080F821200168A94201D1022219E0514576
:1018E00001D1202215E0B14202D14FF4007210E084
:1018F000B94202D14FF400520BE0594502D14FF4E6
:10190000003206E0714502D14FF4001201E04FF0C1
:101910000072124908394A6080F82090816A0029D3
:101920001AD0BDE8F05F0847082505FA0CF52542F6
:1019300012D01B0710D50B6823F00E030B6090F834
:101940004010C36B02FA01F15960826380F82120D4
:1019500080F82090016BE2E7BDE8F09F08000240AC
:101960001C00024030000240440002405800024087
:101970006C00024030B528B308C81349142219443A
:10198000B1FBF2F18900C163104981630221417703
:101990001A6843F6F0718A43D0E900142143D0E974
:1019A00002452C432143046921434469214384694E
:1019B00021431143196000214163012242770177DD
:1019C000084630BD012030BDF8FFFDBF00000240D9
:1019D00070B5044690F82000002501280CD00120A5
:1019E00084F8200094F821600020012E06D084F8AD
:1019F00020000225284670BD022070BD022684F812
:101A00002160A0632068066826F001060660204673
:101A1000FFF748FEE06A00282068016802D041F024
:101A20000E0106E021F0040101602068016841F028
:101A30000A0101602068016841F001010160D9E7F5
:101A400070B5044600F008F90546601C02D0044851
:101A50000078044400F000F9401BA042FAD370BDA6
:101A6000380000202DE9F84FDFF8B891002409F183
:101A7000040A0AF1040B23460F270BF1040EC9E0F8
:101A80000125A5402A40AA427DD1674ED1F804C065
:101A9000ACEB0608B44532D014DCBCF1030F3AD0ED
:101AA00009DCBCF1000F2AD0BCF1010F1CD0BCF145
:101AB000020F31D11DE0BCF1110F17D0BCF1120F94
:101AC0002AD119E0B8F5881F19D006DCB8F5803F97
:101AD00015D0B8F5801F1FD111E0B8F5001F0ED04A
:101AE000B8F5041F18D10AE0CB6815E0CB681B1DC0
:101AF00012E0CB6808330FE0CB680C330CE08B6846
:101B00002BB1012B4FF0080303D0456104E00423FF
:101B100002E0056100E00023FF2A01D8064601E04B
:101B200000F104064FEA840501D9A5F12005D6F895
:101B3000008007FA05FC28EA0C0803FA05F548EAD4
:101B40000508C6F800804D68ED0062D5374DAE69D6
:101B500046F00106AE61AD6924F0030605F001050B
:101B60000095334D06EB050CDCF80850A607360F40
:101B700007FA06F825EA0805DFF8B880404503D1E2
:101B80004FF0000817E044E0DFF8AC80404502D198
:101B90004FF001080FE0DFF8A480404502D14FF07C
:101BA000020808E0DFF89880404502D14FF00308B2
:101BB00001E04FF0040808FA06F848EA0508CCF8F6
:101BC00008804D68D9F80060ED034D4601D51643F5
:101BD00000E096432E604D68DAF80060AD0355468C
:101BE00001D5164300E096432E604D68DBF8006097
:101BF000ED025D4601D5164300E096432E604D6828
:101C0000DEF80060AD02754601D5164300E096434C
:101C10002E60641C0D682A46E5407FF431AFBDE8B4
:101C2000F88F000000040140000011100010024075
:101C30000000014000080140000C0140001001407C
:101C4000001401408068084000D0012070470AB1AC
:101C5000016170470904FBE7014880687047000094
:101C60003800002070B5040025D094F83D00002510
:101C700020B984F83C50204600F04EF9242084F826
:101C80003D002068016821F00101016020680168C1
:101C900041F4004101602068016821F400410160C5
:101CA00000F0ACFA4D4A6168914201D84C4900E01D
:101CB0004C49884201D2012070BD4B492368B0FBDA
:101CC000F1F15E6826F03F060E435E606368934262
:101CD00006D94FF4967359434FF47A73B1FBF3F17D
:101CE0002368491C1E6A26F03F0631431962616869
:101CF000914210D84900401EB0FBF1F2521CC2F3D1
:101D00000B02042A01D2042022E0B0FBF1F0401CB7
:101D1000C0F30B001CE0A268F2B301EBC10303EBBC
:101D20000116431EB3FBF6F35B1C43F480431B0513
:101D300049D092B301EBC10202EB0111401EB0FB8E
:101D4000F1F0401CC0F30B0040F4804040F4004030
:101D50002168CA694CF6FF739A431043C861D4E9FD
:101D6000071001432068026822F0C002114301609D
:101D7000D4E9030101432068826848F2FF339A43A3
:101D800011438160D4E9050108432168CA6822F043
:101D9000FF021043C86001E00EE016E02068016811
:101DA00041F0010101602564202084F83D00256395
:101DB00084F83E50002070BD01EB4106431EB3FB8A
:101DC000F6F35B1CB3E70120C2E701EB4101401EC3
:101DD000B0FBF1F0401CC0F30B00B7E7A086010098
:101DE00080841E0000093D0040420F002DE9F84F9D
:101DF0001F4690468A460446DDF82890FFF72CFFE0
:101E0000054694F83D0020287FD11923012240493E
:101E10002046009500F0F2FE002876D194F83C00B0
:101E2000012872D0012084F83C0020680168C907AD
:101E300003D1016841F0010101602068016821F4CB
:101E400000610160212084F83D00102084F83E00EC
:101E500000262664C4F824806785608D20852D487F
:101E6000E0622B464A465146204600F053FE90B9A8
:101E7000206841698069009036E02A46494620463C
:101E800000F03BFF50B1206C042804D120680168A9
:101E900041F4007101600120BDE8F88F606A21689B
:101EA00000780861606A401C6062618D491E61852E
:101EB000218D491E89B2218522685369DB435B0766
:101EC0000BD451B100781061606A401C6062608D73
:101ED000401E6085208D401E20852A4649462046AA
:101EE00000F066FE0028CED1208D0028C5D154F820
:101EF0003D0B016841F400710160202004F81E09C7
:101F0000E67766770020C7E7FFE70220C4E7000016
:101F1000020010000000FFFF10B586B00021009104
:101F200001910291039100681349884222D1134C18
:101F3000A06940F00800A061A069694600F00800AF
:101F400004904FF440700090122001900320039001
:101F50000B48FFF787FD0B48416841F0E06141F015
:101F600002014160E06940F40010E061E06900F4C2
:101F70000010049006B010BD005400400010024054
:101F8000000C0140000001400248816802781144C1
:101F90008160704738000020074810B5016841F0A3
:101FA00010010160032000F07BF80F2000F006F81C
:101FB00000F024F8002010BD0020024070B50D4D47
:101FC00004464FF47A712878B1FBF0F00A490968A9
:101FD000B1FBF0F000F0F8FA48B9102C07D200225B
:101FE0002146501E00F03CF800206C6070BD0120BE
:101FF00070BD000038000020440000200F4808B5E4
:10200000816941F001018161816901F00101009163
:10201000C16941F08051C161C069002200F0805067
:1020200000900F21901E00F01BF80548416821F038
:10203000E06141F00071416008BD00000010024005
:1020400000000140002809DB00F01F02012191403F
:102050004009800000F1E020C0F800117047000046
:10206000F0B40E4B1B680C46C3F30223C3F1070503
:10207000042D00D90425191D072901D2002300E0F1
:10208000DB1E012606FA05F1491E214099409E40BB
:10209000761E16403143F0BC01F07DBA0CED00E035
:1020A000064900F0070208684FF6FF03184040EAAF
:1020B0000220034A10430860704700000CED00E066
:1020C0000000FA052DE9F0470F46050061D0434EA8
:1020D000306800F00700B84209D2306820F00700ED
:1020E00038433060306800F00700B84251D12868AA
:1020F0003B4C810712D5400703D5606840F4E0608F
:1021000060602878000703D5606840F46050606024
:102110006068A96820F0F000084360602878C00774
:1021200028D06868012810D02168022810D08907BB
:1021300000292EDA616821F0030101436160FFF795
:102140008BFD804641F288390DE021688903EFE775
:102150008901EDE7FFF780FDA0EB0801494502D9B1
:102160000320BDE8F0876068696800F00C00B0EB00
:10217000810FEFD1306800F00700B8420BD930680A
:1021800020F0070038433060306800F00700B842A4
:1021900001D00120E5E72878400705D56068E968A7
:1021A00020F4E060084360602878000706D5606886
:1021B000296920F4605040EAC100606000F03EF8F8
:1021C0006168084AC1F30311515CC84006490860C0
:1021D00006480068FFF7F2FE0020C2E70020024038
:1021E0000010024064650008440000203C0000200C
:1021F0000148006870470000440000200448054979
:1022000000684968044AC1F30221515CC840704724
:10221000440000200010024074650008044805498D
:1022200000684968044AC1F3C221515CC840704744
:1022300044000020001002407465000812A185B01F
:102240000FC98DE80F0014A0144A0068049051686B
:10225000134801F00C03042B10D0082B0ED1C1F34E
:102260008343C9031DF803000AD5516804AAC1F3CA
:102270004041515C0A4A5043B0FBF1F005B0704751
:1022800008494843FAE70000020304050607080965
:102290000A0B0C0D0E0F101001020000001002407E
:1022A00000127A0000093D002DE9F84F040070D0BB
:1022B0002078C04DC00749D06868C0F3810001286C
:1022C00007D06868C0F38100022809D16868C0039C
:1022D00006D52868800339D560680028E7D035E046
:1022E0006068B0F5803F0BD010B1B0F5A02F11D0D1
:1022F000286820F480302860286820F4802002E0DC
:10230000286840F480302860606890B1FFF7A4FC32
:1023100006460AE0286840F480202860F0E700BF05
:10232000FFF79AFC801B642873D828688003F7D5D0
:102330000CE0FFF791FC064605E000BFFFF78CFCC0
:10234000801B6428F0D828688003F7D420789A4E40
:1023500080074FF001094FF0000839D5686810F088
:102360000C0F07D06868C0F38100022809D16868A3
:10237000C00306D42868800714D52069012808D135
:1023800010E02069B0B1C6F80090FFF765FC074681
:1023900005E00AE1FFF760FCC01B0228C4D82868EA
:1023A0008007F7D52868616920F0F80040EAC1008D
:1023B00028600DE0C6F80080FFF74EFC074604E0F9
:1023C000FFF74AFCC01B022823D828688007F7D4EF
:1023D000207800072CD57948A169D9B1C0F80090C0
:1023E000FFF73AFC074604E0FFF736FCC01B022863
:1023F0000FD8686A8007F7D571484FF4FA51006822
:10240000B0FBF1F0009000BF0098411E0091FAD29D
:102410000EE080E0C0F80080FFF71EFC074604E0F5
:10242000FFF71AFCC01B022875D8686A8007F7D42A
:102430002078400760D5E8690027C00008D4E86923
:1024400040F08050E861E869012700F0805000907A
:102450005C480168C90513D40168834641F4807162
:102460000160FFF7F9FB824606E000BFFFF7F4FBCF
:10247000A0EB0A0064284ED8DBF80000C005F5D5B3
:10248000E06801280AD008B1052813D0286A20F096
:1024900001002862286A20F0040002E0286A40F067
:1024A00001002862E06841F2883B98B1FFF7D4FB55
:1024B00082460BE0286A40F004002862EEE700BF85
:1024C000FFF7CAFBA0EB0A0159455AD8286A8007D2
:1024D000F6D50CE0FFF7C0FB824605E0FFF7BCFB3A
:1024E000A0EB0A0159454CD8286A8007F6D41FB1E1
:1024F000E86920F08050E861E06988B36968C1F359
:102500008101022944D00228C6F8608004D0FFF778
:10251000A3FB044638E034E0FFF79EFB074604E0E7
:10252000FFF79AFBC01B02282BD828688001F7D43C
:10253000206AB0F5803F05D16868A16820F40030BA
:1025400008436860D4E908010843696821F47411FC
:1025500008436860C6F86090FFF77EFB044606E01B
:1025600025E000BFFFF778FB001B022809D8286888
:102570008001F7D51BE000BFFFF76EFB001B0228B0
:1025800002D90320BDE8F88F28688001F4D40EE05A
:102590000128F7D06868226A00F48031914204D1A2
:1025A000616A00F47010884201D00120EAE700203F
:1025B000E8E700000010024000004242800442426E
:1025C000440000200070004010B5401EB0F1807F34
:1025D00001D3012010BD4FF0E02460610F2160178E
:1025E00000F0D9FF0020A06107202061002010BD6D
:1025F00070B590F83C20012A26D0012480F83C4098
:10260000022280F83D2003685A689D6822F0700617
:102610000A6832435A600D4B02689A4208D0B2F100
:10262000804F05D00A4B9A4202D00A4B9A4204D1FD
:10263000496825F080031943916080F83D400021EE
:1026400080F83C10084670BD022070BD002C01408F
:10265000000400400008004000B585B00021009152
:1026600001910291039100680B49884211D10B48F6
:10267000816941F0080181618069694600F00800C4
:102680000490402000900220019003900448FFF73E
:10269000E9F905B000BD000000080040001002404C
:1026A000000C014070B5044690F83C000D4601282E
:1026B0000AD0012084F83C0042B1042A18D0082A2C
:1026C0002AD00C2A4DD139E0022070BD206800F0DC
:1026D00039FD2068816941F00801816120688169C4
:1026E00021F004018161206881692A69114311E0A8
:1026F000206800F04FFD2068816941F4006181612C
:102700002068816921F480618161206881692A697A
:1027100041EA0221816124E0206800F067FD206821
:10272000C16941F00801C1612068C16921F004015B
:10273000C1612068C1692A69114311E0206800F075
:1027400081FD2068C16941F40061C1612068C169EF
:1027500021F48061C1612068C1692A6941EA0221CE
:10276000C161002084F83C0070BD10B5040003D0A6
:1027700094F83D0010B107E0012010BD002084F85E
:102780003C00204600F01EF8022084F83D00211D88
:10279000206800F093FC012084F8460084F83E0095
:1027A00084F83F0084F8400084F8410084F8420037
:1027B00084F8430084F8440084F8450084F83D0020
:1027C000002010BD08B500680649884208D10648B7
:1027D000C16941F00401C161C06900F004000090CA
:1027E00008BD0000000800400010024010B504467B
:1027F000022249B104290ED0082913D094F84100CF
:10280000012816D0012010BD94F83E000128F9D10E
:1028100084F83E200FE094F83F000128F2D184F8BC
:102820003F2008E094F840000128EBD184F84020D4
:1028300001E084F841200122206800F075FC0F4976
:102840002068884203D1426C42F40042426420680E
:10285000884208D0B0F1804F05D00949884202D0A3
:102860000849884204D1816801F00701062903D094
:10287000016841F001010160002010BD002C014001
:10288000000400400008004030B504460D460068D2
:10289000002200F049FC174B41F2111120688A1008
:1028A000984209D1036A0B4206D1036A134203D14D
:1028B000436C23F4004343642068036A0B4206D14F
:1028C000016A114203D1016821F001010160012078
:1028D0003DB1042D08D0082D09D084F84100002016
:1028E00030BD84F83E00FAE784F83F00F7E784F84B
:1028F0004000F4E7002C01407047704770B50400B9
:1029000004D094F83D00002510B106E0012070BD10
:1029100084F83C50204600F023F8242084F83D0041
:102920002068C16821F40051C160204600F02CFDF0
:102930002068016921F4904101612068416921F01A
:102940002A0141612068C16841F40051C1602564D9
:10295000202084F83D0084F83E00002070BD000077
:1029600070B586B000250646009501950295039541
:1029700000681E49884237D11D49C86940F40030BB
:10298000C861C86900F400300490886940F0040010
:1029900088618869174C00F00400049004200090BE
:1029A000022001900320039069462046FFF75AF861
:1029B0000820CDE90005694620460295FFF752F848
:1029C0000E4C0D48C4E900058020C4E902502020C7
:1029D0002561C4E905502046E561FEF7CBFF08B14B
:1029E000FEF71BFFB463666206B070BD0044004092
:1029F00000100240000801406C00024088010020E5
:102A000090F83E30202B0ED159B152B190F83C30A5
:102A1000012B08D0012380F83C300023036300F031
:102A20000FBD0120704702207047704770470000BB
:102A30002DE9F843044690F83D001F4616460D4622
:102A400020284CD1C5B1BEB194F83C00012846D035
:102A5000012084F83C004FF00008C4F84080212099
:102A600084F83D00FFF7F8F8A6848146E684A06864
:102A7000B0F5805F03D004E00120BDE8F883206951
:102A800028B12E465FF0000584F83C800EE0002659
:102A9000FAE78021204600F00BFDA0B9AEB116F890
:102AA000010B21684860E08C401EE084E08C4B46BE
:102AB0004FF0000200970028EBD14FF04001204674
:102AC00000F0F6FC30B10320D7E735F8020BC0F375
:102AD0000800E6E7202084F83D000020CDE7022032
:102AE000CBE7FEE701684A69D24352050FD46FF481
:102AF00080624A61002140F8301F202242738173B6
:102B0000026942F004020261017301207047002053
:102B100070470000F8B50446C06A1E460D461746C9
:102B2000082807D0012805D010F5803F02D0206B7F
:102B3000122804D12068016841F4807101601346B5
:102B400000224FF001112046009600F057F840B1E6
:102B500020680068C00502D54FF40070206403208F
:102B6000F8BD2069B0F5804F0ED00620216800EA3C
:102B7000D51040F0F000086133463A460B49204634
:102B800000F070F878B902E005F0FE0000E0E8B26D
:102B900021680861054933463A46891F204600F0FE
:102BA00061F80028DCD00120F8BD00000800010019
:102BB00070B516460D4604460DE02046FFF792FF1D
:102BC00008B1012070BD681C05D0FFF745F8801BD7
:102BD000A84207D835B120684069C0434007ECD40B
:102BE000002070BD002044F8300F20216173A073D5
:102BF000216941F0200121612073E2E72DE9F047CE
:102C00001E4690460D460446C1F30747DDF8209066
:102C100008E0701C06D0FFF71FF8A0EB0900B042D7
:102C20000FD876B12068012F18D0806925EA0000FE
:102C30000004000C14D000214145EAD00020BDE87A
:102C4000F087002044F8300F20216173A0732169C0
:102C500041F02001216120730120F0E74069E5E7A0
:102C60000121E9E72DE9F0479A4691460E460446D0
:102C700000254FF02008C1F3074725E02068406990
:102C8000C043400514D42068016841F4007101601C
:102C900021686FF480604861256384F83D8084F882
:102CA0003E50206C40F00400206484F83C501FE04B
:102CB000B9F1FF3F08D0FEF7CFFFA0EB0A0149456D
:102CC0000CD8B9F1000F09D02068012F13D080690A
:102CD00026EA00000004000C0BD0CFE744F8305F78
:102CE00084F80D80A573206940F0200020612573D1
:102CF0000120BDE8F0874069EAE770B516460D4649
:102D000004460DE02046FFF7EDFE08B1012070BD3E
:102D1000681C05D0FEF7A0FF801BA84207D835B17C
:102D200020684069C0430006ECD4002070BD00203C
:102D300044F8300F20216173A073216941F0200114
:102D400021612073E2E70000094808B5416941F0BC
:102D5000010141614069002200F00100009005215D
:102D60001020FFF77DF9BDE808401020FFF76AB991
:102D70000010024070B586B000241C4800940194F5
:102D800002940394816941F010018161816901F02D
:102D900010010491816941F020018161816901F094
:102DA00020010491816941F004018161816901F090
:102DB00004010491816941F00801816180690C4E30
:102DC00000F008004FF400550490002229463046D8
:102DD000FEF73DFF01200095CDE90104022003909C
:102DE00069463046FEF73EFE06B070BD0010024058
:102DF000001001400D4810B50B4901600C494160BD
:102E000000214FF480428160C0E903124161816179
:102E1000C1610162FEF726FF002803D0BDE8104023
:102E2000FEF7FBBC10BD000000540040A8000020CD
:102E3000A086010010B58AB0002407941C216846C2
:102E40000894FDF7C5FB1648144901604721C0E905
:102E5000011444F61F61C0E903148461FFF785FC87
:102E600008B1FEF7DAFC079407A90D480894FFF7AC
:102E7000BFFB08B1FEF7D1FC6020CDE9000402944D
:102E80000022694606480494FFF70CFC08B1FEF7DF
:102E9000C4FC0348FFF7E0FB0AB010BD0008004087
:102EA000FC0000200E4810B50C4901604FF4E131E0
:102EB0004160002181600C22C160C0E9041281617F
:102EC000C161FFF71BFD08B1FEF7A7FCBDE810408C
:102ED000322204490248FFF793BD0000004400403D
:102EE00044010020C40F0020FEE7FEE72DE9FC4767
:102EF0003148FDF7FAFA3049072201446846C91FF4
:102F0000FDF78DFB00258DF807502B48FDF7EDFAF6
:102F10002A4C3226DFF8A8802B2814D92648FDF742
:102F2000E4FA01462448FDF731FB2068016821F0EE
:102F300001010160206846602068016841F00101DC
:102F4000016088F800501FA16846FDF793FBDFF889
:102F50007C901F4F78B11FA16846FDF78BFB4FF0A7
:102F6000010888B11DA16846FDF784FB002821D126
:102F700087F800800BE01BA0FDF784F989F800506A
:102F80003D7088F8005002E089F800803D700A48E2
:102F9000FDF7ABFA01460848FDF7F8FA206801682A
:102FA00021F001010160206846602068016841F05D
:102FB00001010160BDE8FC87C40F002088010020EA
:102FC000310000206D617974696E68000C0000208A
:102FD0000D0000206E68696574646F00746E67751B
:102FE0006F6E67007965730A000000004FF47A7411
:102FF000034801F0FDFC204600F0B8FDF8E70000B2
:10300000100000204FF4FA7401F026FD204600F075
:10301000ADFDF9E71FB50022CDE900120221CDE98F
:1030200002216946FEF71EFD1FBD1FB5002200915B
:103030000121CDE90112022103916946FEF712FD3B
:103040001FBD10B5FEF7A0FF01F0EAFF012803D075
:10305000BDE8104001F076BF10BD30B58FB028211B
:103060006846FDF7B5FA14210AA8FDF7B1FA012167
:103070000804CDE900100024029402250491CDE952
:1030800007504FF4E01009906846FFF70DF908B1BA
:10309000FEF7C3FB0F20CDE90A054FF48060CDE9B0
:1030A0000C4002210AA80E94FFF70CF8002801D06A
:1030B000FEF7B3FB0FB030BD70470000F0B50268FB
:1030C000164B174C174D4FF08047984205D0B84229
:1030D00003D0A04201D0A84203D122F070064A6872
:1030E0003243984205D0B84203D0A04201D0A84252
:1030F00003D122F44074CA6822434C6922F0800252
:10310000224302608A68C2620A688262984201D1E0
:103110000969016301214161F0BD0000002C0140FB
:10312000000400400008004010B501F01F03012119
:10313000046A99408C430462016A9A401143016217
:1031400010BD000030B5026A22F001020262026A7C
:103150004368846924F073050C682C4322F002054F
:103160008A682A430A4DA8420BD122F00805CA6892
:1031700023F440732A434D6922F004021D438B69F6
:103180002B434360846149684163026230BD0000A3
:10319000002C014030B5026A22F010020262026A7D
:1031A000436884690D6824F4E64444EA05248D6884
:1031B00022F0200242EA05120B4DA8420ED1CD6842
:1031C00022F0800242EA05124D6923F4406343EA8B
:1031D00085038D6922F0400243EA850343608461E0
:1031E00049688163026230BD002C014030B5026A3B
:1031F00022F480720262036A4268C46923F4007395
:1032000024F073050C682C438D6843EA05230C4DAC
:10321000A8420ED1CD6823F4006343EA05234D692B
:1032200022F4405242EA05128D6923F4806342EA97
:1032300005124260C4614968C163036230BD000089
:10324000002C014030B5026A22F480520262046A06
:103250004268C3690D6823F4E64343EA05238D6899
:1032600024F4005444EA0534064DA84204D14D69C3
:1032700022F4804242EA85124260C36149680164D7
:10328000046230BD002C014070B5446A206840697A
:1032900094F83D10C0F3C0100025212904D118B1C5
:1032A000E584204600F067F82068406994F83E10F5
:1032B000C0F38010222904D118B1E585204600F022
:1032C00042F8206C40F0100020642046FFF715FB08
:1032D00070BD10B50146406A0968096889061BD4AB
:1032E0000021C1850168CA6822F48072CA60016841
:1032F0004A6922F001024A6101684A6922F04002EB
:103300004A61202180F83E10016B012904D1016837
:10331000CA6822F01002CA60016B012902D0FFF7CF
:1033200084FB10BD818DFFF7E7FA10BD10B5406A30
:10333000016B012902D0FFF779FB10BD818D49088F
:10334000FFF7DAFA10BD0168CA6822F49072CA6009
:1033500001684A6922F001024A61016B012904D126
:103360000168CA6822F01002CA60202180F83E106D
:103370000021016370470168CA6822F0C002CA6078
:10338000202180F83D10704770B50446006801693F
:10339000E26821F44051114301612169A0680843AA
:1033A000616908432168CA6841F20C639A43024389
:1033B000CA6020684169A26921F4407111434161EA
:1033C0001E492068884202D1FEF728FF01E0FEF77F
:1033D00015FF00EBC00101EB001260686421800062
:1033E000B2FBF0F3B3FBF1F36FF018067343B2FBDB
:1033F000F0F5B2FBF0F605EB8305322303EB051580
:10340000B5FBF1F5B6FBF1F605F0F00505EB061599
:10341000B2FBF0F6B2FBF0F0B0FBF1F06FF0180287
:10342000504306EB800003EB0010B0FBF1F0216885
:1034300000F00F002844886070BD00000038014093
:1034400038B5816282850025134604460564222032
:1034500084F83E00A26B13489062A26B1248D062BF
:10346000A26B12481063A06B0A4645632168A06BEB
:10347000091DFEF7ADFA206801684168009184F8E3
:103480003C50C16841F48071C1602068416941F0DD
:10349000010141612068416941F040014161002022
:1034A00038BD0000D33200082D33000889320008EF
:1034B0002DE9F041984617460E460446069D1DE04C
:1034C000681C1BD02DB1FEF7C7FBA0EB0800A8427B
:1034D00014D92068C16821F4D071C16020684169A5
:1034E00021F001014161202084F83D0084F83E0074
:1034F000002084F83C000320BDE8F08120680068CB
:1035000036EA000004D00020B842D9D00020F3E70A
:103510000120F9E7094C4FF4FA7500BFFFF7E6FC0C
:10352000607808B106A002E0207810B90AA0FCF784
:10353000A9FE284600F01AFBF0E700000C0000206E
:103540004E686170206E67756F6E67206E68696582
:10355000743A200A000000004E68617020676F63B3
:1035600020717561793A200A00000000FEE74900E9
:1035700050EAC12018BF04204A0D18BF40F00100D6
:1035800040F2FF72B2EB515F08BF40F00200012829
:1035900008BF052070470907090E002804DB00F169
:1035A000E02080F80014704700F00F0000F1E020E8
:1035B00080F8141D70472DE9F0414F1E00EBC70144
:1035C0000446D1E9000115461E4637F006020DD02B
:1035D0002A46334602F0B6F87F1E04EBC703D3E950
:1035E000002301F007FE37F00602F1D1022F25D0AB
:1035F000042F13D0062F18BFBDE8F0812A463346AA
:1036000002F0A0F8D4E90A2301F0F4FD2A4633467B
:1036100002F098F8D4E9082301F0ECFD2A4633467D
:1036200002F090F8D4E9062301F0E4FD2A4633467F
:1036300002F088F8D4E9042301F0DCFD2A46334681
:1036400002F080F8D4E9022301F0D4FD2A46334683
:1036500002F078F8D4E90023BDE8F04101F0CABDDA
:10366000002213461046014901F080BE0000F03FE1
:1036700001F0C0BD002213461046114601F076BE8F
:1036800040F2013200204FF0E04102F0AABE0000FB
:10369000024A0020110702F0A4BE000001FDFFFF56
:1036A00030380A2801D201207047002070470000FE
:1036B0002DE9F04725480078002845D0002524480A
:1036C000FCF713FF234C401E214F234E20602CE0BB
:1036D000385C303809282CD81D48FCF706FF2168D3
:1036E000401A401E01F0DEFF02460B4600201B4937
:1036F00000F072FA8046206889468246385C30388D
:1037000001F0B9FF42464B4602F01CF8804689465C
:10371000284601F0C7FF42464B4601F06BFD01F021
:103720007DFFC5B2AAF10100206096F90010884221
:10373000CEDA0748FCF7D9FE3070094801788D428F
:1037400002D0002D00D00570BDE8F0870D000020EC
:10375000C40F00202C000020310000200000244075
:10376000300000202DE9F05F3F48404E007888B1DE
:1037700040483F4C2146006802F08AFD3E4902F075
:10378000BBFC214602F08EFB3C4902F017FB02F025
:103790004BFC5BE03A48FCF7A8FE3A4F97F9001063
:1037A000884254D038480078002850D10025344849
:1037B000FCF79BFE354C401EDFF8C48020602EE0F5
:1037C00018F80000303809282DD82D48FCF78DFE58
:1037D0002168401A401E01F065FF02460B4600209A
:1037E0002B4900F0F9F9814620688A46834618F88B
:1037F0000000303801F03FFF4A46534601F0A2FF77
:1038000082468946284601F04DFF52464B4601F05C
:10381000F1FC01F003FFC5B2ABF10100206097F9A4
:1038200000108842CCDA1648FCF75FFE3870B42DE1
:1038300000D9B425294617A0FCF724FD4FF4FA60FF
:103840004543B420B5FBF0F000F5FA703080134921
:1038500030880A88824204D00880BDE8F05F01F019
:103860004DB9BDE8F09F00000C00002032000020A0
:103870000000A041100000200000FA440000FA43BC
:10388000C40F0020310000200D0000202C0000207B
:1038900000002440676F633A202564003400002054
:1038A00010B50446FEF7A4FC05494FF0E022B0FB3A
:1038B000F1F1906961439369C31A8B42FBD310BD48
:1038C00040420F0013B54FF0FF3301226946024812
:1038D000FFF7AEF800981CBD4401002000B58DB084
:1038E0000421002000F08CF81AA000F0D5F8022185
:1038F000012000F085F819A000F0CEF80D2101207C
:1039000000F07EF817A000F0C7F8C62000F084F899
:103910001548006802F026FA02460B4613A16846D5
:10392000FCF7BCFC684600F0B7F8694611A0FCF74C
:10393000A9FC0B21012000F063F8DF2000F08CF8D7
:103940000C21012000F05CF80EA000F0A5F80DB0ED
:1039500000BD0000445331384232300054203D2035
:1039600000000000202020001000002025322E3210
:10397000660000006E6869657420646F3A202573E4
:103980000A0000004300000010B53220FEF758F88E
:10399000302000F041F80520FEF752F8302000F00A
:1039A0003BF80120FEF74CF8302000F035F80A20F3
:1039B000FEF746F8202000F02FF80A20FEF740F826
:1039C000282000F029F80120FEF73AF8082000F03E
:1039D00023F80120FEF734F8012000F01DF8012043
:1039E000FEF72EF80120FEF72BF8062000F014F861
:1039F0000120FEF725F8BDE810400C2000F00CB8BF
:103A000010B1012805D102E041F0800101E041F050
:103A1000C001C8B2AFF300801CB500F0F00141F066
:103A20000C028DF8042041F0080100018DF805100A
:103A300040F00C018DF8061040F008008DF80700EA
:103A400064200090042301AA4E210248FEF7CEF91B
:103A50001CBD0000A80000201CB500F0F00141F0E2
:103A60000D028DF8042041F0090100018DF80510C8
:103A700040F00D018DF8061040F009008DF80700A8
:103A800064200090042301AA4E210248FEF7AEF9FB
:103A90001CBD0000A800002010B5044602E0641C14
:103AA000FFF7DAFF20780028F9D110BDAAB0FEF7A1
:103AB00073FAFFF7D2FAFFF75DF9FFF745F9FFF761
:103AC00099F9FFF7B7F9FFF7EDF9FFF75DFF1C2252
:103AD00021496846FCF728FD0021684600F052F8AD
:103AE0001E4C1D491C22A0601C3107A8FCF71CFDC0
:103AF000002107A800F046F81749E0601C22383181
:103B00000EA8FCF711FD00210EA800F03BF81249A9
:103B100020611C22543115A8FCF706FD002115A8D0
:103B200000F030F80C4960611C2270311CA8FCF7D1
:103B3000FBFC00211CA800F025F80749A0611C220D
:103B40008C3123A8FCF7F0FC002123A800F01AF820
:103B5000E06100F012F8FEE7BC6400080C000020F1
:103B600001460020842900D0C81C704710B500B958
:103B7000012001F001F9002010BD10B501F022F97B
:103B8000002010BD7FB50D4604464169B0F908001C
:103B900081B1A16971B1FFF7E3FFD4E905128DE8A6
:103BA0000700D4E900102B46226901F00EFA0390B9
:103BB00004B070BDFFF7D4FF03A9CDE90001208A4E
:103BC0002B4682B2D4E9001001F0D2F9012801D0CD
:103BD0000020EDE70398EBE72DE9F04D1D460C467C
:103BE00098B0174621F0004123F00043002814BF8D
:103BF0004FF0010C4FF0000C0CEB440CFE4A0CEBA8
:103C000002064FEA620C66452BD33E0018BF012620
:103C100006EB45061644F94A964222D3F84A53EA7F
:103C2000070C02D0944205D148B918B000201146C3
:103C3000BDE8F08D002808BF4FF0000C01D04FF018
:103C4000010C0CEB440212F5001F0AD8002F14BF20
:103C50004FF0010C4FF0000C0CEB450212F5001F69
:103C600007D918B03A462B462146BDE8F04DFFF77C
:103C7000FFBC0022DFF88CA3002CB8BF534526DA26
:103C8000DFF884C36345A8BF022220DADFF870C3DF
:103C90009C451CDCDFF874C30CEB235CBCF1140FF7
:103CA00008DDCCF1340627FA06FC0CFA06F6BE4213
:103CB0000DD108E05FB9CCF1140623FA06FC0CFA2A
:103CC00006F69E4203D10CF00102C2F1020251EA53
:103CD000000C19D1002D17DA002C18BF022A01D0D0
:103CE000012A07D00220FCF70DFD18B0BDE8F04D09
:103CF000FFF7B6BC0220FCF705FDFFF7B1FC18B0DA
:103D000081F00041BDE8F08DB7F1000C6CD1534556
:103D100025D104F1804212F5801201BF0028002055
:103D2000B74918B008BFBDE8F08DB548884207DC38
:103D3000002DA1BF6046294618B0BDE8F08D07E010
:103D4000281E05DA80F0004118B06046BDE8F08D0D
:103D5000AF497944D1E9000118B0BDE8F08DDFF832
:103D6000A0C2634525D1002D1FDA19B1514512D1EA
:103D7000D8B909E0002840F0EC82A24A214618B0E8
:103D800062F31E01BDE8F08D0020214618B060F3FB
:103D90001E01BDE8F08D08DA18B02346BDE8F04DED
:103DA00002460020614601F0E1BA18B02146BDE8A4
:103DB000F08D514518DAB5F1804F0DD0A5F1005CBA
:103DC000BCF1FF5C10D1B4F1000C0DDB18B0614602
:103DD000BDE8F04D00F06CBE234618B00246BDE8C9
:103DE000F04D194601F0AEBC060024F0004C3BD16A
:103DF000D9B1514533D1002C06DD002DA1BF0020E3
:103E0000514618B0BDE8F08D002C01DD002D1BDB04
:103E1000002C13DA002D11DB012A4FF0000014BF33
:103E200078497C4918B0BDE8F08D022A18BF002CF3
:103E30000AD0012A08D1002C06DA0AE0002CB8BF0B
:103E4000002D11DA012A04D0002018B00146BDE887
:103E5000F08D18B000204FF00041BDE8F08DA1F1C9
:103E60004050B0F17F601AD0012000EBE47050EABE
:103E7000020421D0624C521E4FF0000B104304BFCD
:103E80004FF0000B644C654883427CDD644A654812
:103E900093421FDD884217DB002D25DB37E0002C25
:103EA00000DA4AB1022A0CBF01204FF0FF3018B0EF
:103EB000BDE8F04D01F0DFBB0120FCF723FC18B09A
:103EC000BDE8F04DFFF7D6BB4D4A8A4202DC002D1B
:103ED0000ADC1CE0814202DA002D18DA04E0484BCB
:103EE000994220DD002D12DD0220FCF70BFCFFF7CC
:103EF000C7FB05460E46002253465846214601F0B0
:103F000021FC18B066F31E012846BDE8F08D0220A2
:103F1000FCF7F8FBFFF7BCFB0A46214618B062F33A
:103F20001E01BDE8F08D00223046614601F030FEF2
:103F300080460E466FF0010202F053FA4FF0553200
:103F4000394B01F033FD4246334601F0FBFB0022C2
:103F5000364B01F02BFD8246424633460491104613
:103F6000194601F0EFFB5246049B01F0EBFB8A4639
:103F700000904FF0C0422E4B4046314601F0E2FB2C
:103F80002C4A2B4B00E027E0CDE906015146009872
:103F900001F0D8FB82460191274A284B4046314622
:103FA00001F0D0FB5246019B01F0F2FD82460B4628
:103FB00002460591DDE9060101F01CF9DDE9062361
:103FC00000268846304601F0E3FD5246059B01F08D
:103FD000EDFC024600F07EB90020B1F5801F07DA43
:103FE00035223046614602F0FCF906466FF0340097
:103FF00000EB215024E00000FFFF1F00FFFF0F0037
:104000000000F03F0000F07F0000404301FCFFFF94
:10401000B22800000000F0FF0000F0BF0000E04107
:104020000000F043FFFFEF3F5555D53F0000E03F54
:104030004715F73FFE822B6544DF5DF80BAE543E1B
:10404000A0F2FF300190C1F3130040F07F6141F016
:1040500040510291FE498842D8BF002004DDFD494D
:104060008142C8BF012001DD0D9008E000200D90C5
:104070000198401C01900298A0F5801002900299CE
:10408000F54878440B910D9900EBC100D0E900236D
:104090000F9330460A920B9901F07AFDCDE90601A3
:1040A000DDE90A2130460F9B01F0A4F802460B46D9
:1040B0000020EA4901F05AF9059102460B460090AA
:1040C000DDE9060101F03EFB1490E5488A464FF019
:1040D000000878440299006812904FF0005040EABE
:1040E00061010D980F9B01EB804000F500210991C3
:1040F0000A9A129801F04CFD32460B9B01F056FCD7
:104100004246534601F01EFB064602914046514688
:10411000099B129A01F016FBDDE9062301F046FC2B
:104120003246029B01F034FD059B009A01F00AFB28
:104130000091149A049053461046194601F002FB70
:1041400006460246C7480B46029106217844FFF70F
:1041500032FACDE90510029B32461046194601F0AD
:10416000F1FADDE9053201F0EDFA05910646534614
:1041700040461946149A01F03DF8009B049A01F05C
:10418000E1FA3246059B01F035F8CDE905104246CB
:1041900053461046194601F0D5FA0022B24B02915F
:1041A0000A9001F027F8DDE9053201F023F80E4608
:1041B0004246AD4B404601F0EBFC029B0A9A01F0EF
:1041C000E7FCDDE9053201F0F1FB424602910A907D
:1041D00033461046514601F0B5FACDE90601534683
:1041E000149A02990A9801F0ADFA8A460290334671
:1041F00042460099049801F0A5FA5346029A00F04D
:10420000F9FF82460B4602460591DDE9060100F002
:10421000F1FFDDE9062300208846064601F0B8FCE0
:104220005246059B01F0C2FB824609914FF0604265
:104230008E4B3046414601F085FA049006918C4A37
:104240008A4B5046099901F07DFA82460291894ACB
:10425000894B3046414601F075FA5246029B00F008
:10426000C9FF864B7B440D9A03EBC203D3E90023BD
:1042700000F0C0FF0E900791019801F0FCF9059144
:10428000DDE9061382460E9A049800F0B3FF7C4ADB
:104290007A440D9B02EBC303D3E9002300930292FF
:1042A00000F0A8FF5246059B00F0A4FF00268846B8
:1042B00052463046059B01F06BFC009B029A01F0D0
:1042C00067FC069B049A01F063FC079B0E9A01F0C1
:1042D0006DFB024600200B4602903846294601F04D
:1042E00031FA824601912B4638461946029A01F06E
:1042F0004FFC3246434601F025FA5246019B00F03E
:1043000079FF07468A46324643462946029801F01D
:1043100019FA05460E463A46534600F06BFF594AD5
:104320008846914221DBA8EB020353EA000210D138
:104330002A46334601F02CFCCDE90401524A534B86
:104340003846514600F056FFDDE9042301F0F8FA43
:1043500021D20220FCF7D6F9FFF792F90A4621464E
:1043600018B062F31E01BDE8F08D494B28F0004201
:104370009A4210D3474A08EB020353EA00027FF443
:10438000C6AD2A46334601F003FC3A46534601F0D7
:10439000D7FA7FF6BCAD0022019228F000403E49DA
:1043A0003E4A01EB2051824223DA481C4FF480112F
:1043B00021FA00F040443A4AC0F30A517A44394B9A
:1043C000A1F2FF31CB4020EA0303C0F3130040F415
:1043D0008010C1F11401C84012680190B8F1000FBB
:1043E000BCBF404201902846314601F0D1FB054652
:1043F0000E462A4633463846514600F0FBFE4FF043
:1044000000084246284B4046059101F09BF9CDE952
:104410000601264A264B4046059901F093F9009182
:1044200002902A4633464046059901F0B1FB3A46D0
:10443000534601F0BBFA1F4A1F4B01F083F9009B62
:10444000029A00F0D7FE0746884602460B4635E042
:104450008E9803007AB60B00FA2400000000F03FAB
:1044600032250000602400000000084009C7EE3F2C
:10447000FD033ADCF5015B14E02F3EBE382300005B
:10448000FC22000000009040FE822B654715973CFF
:1044900000CC904000346F3F01FCFFFF0000E03F84
:1044A00048220000FFFF0F00432EE63F396CA80CA6
:1044B000615C20BEEF39FAFE422EE63FDDE90601DF
:1044C00000F098FEDDE9062305460E4601F060FB8C
:1044D0003A46434601F06AFA0F462A4633460090B0
:1044E0001046194601F02EF9824602462E488846AB
:1044F0000B4605217844FFF75EF85246434601F02B
:1045000021F92A46334601F051FA80468A463B4655
:1045100028463146009A01F015F93B46009A00F012
:1045200069FE0691009000224FF0804340465146BC
:1045300001F02EFB0F460C9042465346284631466A
:1045400001F000F93B460C9A00F010FF069B009A20
:1045500001F01EFB2A46334601F01AFB0022134BE2
:1045600001F024FA054601980E4601EB00510815AA
:10457000002810DC28463146019A01F032FFFEF790
:10458000F6FF042808BFFFF783F828463146019A52
:1045900001F027FF05460B4618B02A46584621462B
:1045A000BDE8F04D01F0CEB8E82000000000F03F7B
:1045B0002DE9F041184C0F46054666692068001D3C
:1045C00000F016FB38B9206890F82C1001208840C4
:1045D000A1698143A161681C07D137B12168BDE899
:1045E000F0410E48091D00F047BB20683544B54234
:1045F0004560216805D2A068BDE8F041091D00F0C2
:1046000023BB6068091D00F01FFB206B854200D2B0
:104610002563BDE8F0810000480000202813002039
:104620002DE9F041054600F033FB2E4C2069401C7B
:10463000206120682C4F10B1E06940B32DE0256067
:104640002069012829D1002606EB860007EB8000AF
:1046500000F0ECFA761C072EF6D323488C3000F0DD
:10466000E5FA2148A03000F0E1FA1F48B43000F02C
:10467000DDFA1D48C83000F0D9FA1B48DC3000F0E4
:10468000D5FA19488C3060601430A06005E02068CD
:10469000E96AC06A884200D82560E06A401CE0628E
:1046A000E96A0120A26988401043A06101EB810002
:1046B00007EB8000291D00F0DFFA00F009FBE0693C
:1046C00000280CD02068E96AC06A884207D20749EE
:1046D0004FF080500860BFF34F8FBFF36F8FBDE87E
:1046E000F0810000480000204C12002004ED00E0A2
:1046F00010B5044690F8510058B101280CD002289A
:104700000FD0502080F31188BFF34F8FBFF36F8F0E
:10471000FEE7206B00F0F0FA2046BDE8104000F004
:10472000EBBA10BD10484FF44061420706D0C01DDF
:104730000D4920F00700411AC1F540610B4A0023E2
:104740000144C2E900030839103A21F00701116061
:104750004B600B600B1AC0E9001393604FF00040F0
:104760005360D060704700003C130020940000208C
:10477000144E154CA6F1C8074FF08058DFF84C9046
:1047800012E000BF00F084FAF068C568281D00F050
:104790002FFA2069401E2061E068401EE06000F0B2
:1047A00097FA2846FFF7A4FFE0680028EAD13868A6
:1047B0000128F9D9C9F80080BFF34F8FBFF36F8F7D
:1047C000F2E70000141300204800002004ED00E090
:1047D0002DE9F0479A46DDE9098481466FF003032D
:1047E000206B03EB82021044089D20F0070670073F
:1047F00007D0502080F31188BFF34F8FBFF36F8F26
:10480000FEE723180A5C83F834200A5C12B1401CCE
:104810001028F6D3002784F84370072D00D306250F
:10482000E562C4E91157201D00F00BFA04F11800ED
:1048300000F007FA2461C5F107006462A061E76433
:1048400084F8507052464946304600F0BFF8206068
:10485000B8F1000F01D0C8F80040BDE8F0870000B3
:1048600030B5114900E011460A688242FBD34B681B
:104870005C18844203D14068184448600846436885
:104880001C18944209D1084C103C2468A24209D05B
:1048900052681A4442600A6812680260814200D07D
:1048A000086030BD0460F9E79400002006484168C4
:1048B000096829B14168C968C968496801637047D6
:1048C0004FF0FF31FAE70000480000200848406838
:1048D000401C4FF0500080F3118804D0BFF34F8F7D
:1048E000BFF36F8FFEE7BFF34F8FBFF36F8FFEE70E
:1048F0009C0000202DE9F0410546002700F098FAC1
:10490000314E306808B9FFF70DFFF06805424BD112
:10491000C5B3083568070ED005F00700C0F10800E0
:104920000544680707D0502080F31188BFF34F8FEC
:10493000BFF36F8FFEE72DB37068854234D82248ED
:10494000103001460C6801E020460C466168A9421F
:1049500002D221680029F7D131688C4224D007683F
:104960002168016060680837411B10290FD9601960
:10497000420708D0502080F31188BFF34F8FBFF358
:104980006F8FFEE710E041606560FFF769FF6168C7
:104990007068401A7060B268904200D2B060F068EF
:1049A00001430020C4E9000100F0ACFB780707D008
:1049B000502080F31188BFF34F8FBFF36F8FFEE756
:1049C0003846BDE8F08100008400002010B5031FC8
:1049D0004FF080741C601B1F21F001011960191F2A
:1049E000024B0B60143940380A6010BDCD480008F6
:1049F00070B50546FCF79EFE164C20700120FEF7B0
:104A00004FFFCC20FCF7C4FE4420FCF7C1FE4FF45E
:104A10004870FEF745FFFCF78DFE20700120FEF781
:104A20003FFFCC20FCF7B4FEBE20FCF7B1FEFCF744
:104A30004FFE6070FCF74CFEA070617841EA0020E8
:104A4000A08001F011FB6FF0030101F0F8FC286079
:104A500070BD00000000002070B50D484FF40054F8
:104A60000A4D007801F000FB0A49096801F010FBCB
:104A700004D209A0FBF706FC002200E00122214637
:104A80002846BDE87040FDF7E2B800000010014084
:104A90003000002010000020517561206E67756F96
:104AA0006E67206E6869657420646F0A00000000FC
:104AB0002DE9F04106460F4600F084FF041E0D4626
:104AC00018BF0120284320F00040C0F17F6000F1B2
:104AD000E040C00F0ED0301C18BF0120384320F03A
:104AE0000040C0F17F6000F1E040C00F04BF012032
:104AF000FBF708FE20462946BDE8F08100B587B0E7
:104B00006021CDE900100020029002460490694621
:104B10001148FDF7C7FD00210F48FDF767FE002192
:104B20000D48FDF7B1FE10B10CA0FBF7ABFB002266
:104B300069460948FDF7B6FD10B110A0FBF7A2FBCE
:104B400000210548FDF752FE002803D0002118A0DF
:104B5000FBF798FB07B000BDFC0000204C6F693AE2
:104B6000204B686F6E67207468652064756E6720DF
:104B700054696D657220342E0A0000004C6F693A4A
:104B8000204B686F6E6720746865206361752068CC
:104B9000696E68206B656E682064617520726120A3
:104BA0006375612054696D657220342E0A0000001F
:104BB0004C6F693A204B686F6E672074686520629D
:104BC0006174206461752074616F2078756E672050
:104BD00050574D207472656E206B656E6820256499
:104BE000206375612054696D657220342E0A0000BF
:104BF000D0E9013201699A60D0E901235A604A681C
:104C0000824201D182684A60002202610868401E27
:104C10000860086870470000034B036003F154000C
:104C20000860802010607047F80F002000F1080134
:104C30004FF0FF32C0E90112C16001610021016043
:104C4000704700210161704730B50B685A1C02D0D3
:104C500000F1080202E0026904E022465468256877
:104C60009D42FAD953684B6099608A60516008612F
:104C70000168491C016030BD42684A6093688B60DE
:104C800093685960916008610168491C0160704730
:104C9000502080F31188BFF34F8FBFF36F8F0A4905
:104CA0004868401C486001280CD10848006810F092
:104CB000FF0F07D0502080F31188BFF34F8FBFF351
:104CC0006F8FFEE7704700009C00002004ED00E0BD
:104CD0000849486828B1401E486001D180F3118816
:104CE0007047502080F31188BFF34F8FBFF36F8F51
:104CF000FEE700009C00002070B5002827D0144D6E
:104D0000A0F108046168E868014207D1502080F3EF
:104D10001188BFF34F8FBFF36F8FFEE722683AB160
:104D2000502080F31188BFF34F8FBFF36F8FFEE7E2
:104D30008143616000F07CF86068696808446860DD
:104D40002046FFF78DFDBDE8704000F0DBB970BD77
:104D5000840000204FF0E0200021016181610549BD
:104D60004FF47A720968B1FBF2F1491E41610721E3
:104D7000016170474400002010B5020014D00F48B4
:104D8000806B38B1502080F31188BFF34F8FBFF391
:104D90006F8FFEE700F04CF800211046FFF708FC8B
:104DA00000F0B0F9002807D105494FF080500860A5
:104DB000BFF34F8FBFF36F8F10BD0000480000207E
:104DC00004ED00E010B586B00024039405AA04A900
:104DD00003A80494FFF720FFDDE903010094CDE967
:104DE000011000230EA11048059A00F0EEF80F49BB
:104DF0000028486311D0502080F31188BFF34F8FF3
:104E0000BFF36F8F4FF0FF3008630120C8614C6122
:104E100006B0BDE8104000F041B806B010BD00007B
:104E200049444C450000000071470008480000203C
:104E30000248816B491C81637047000048000020D4
:104E40001448816B11B10121416270470021416218
:104E50008169B1FA81F1C1F11F0101EB81020E49B3
:104E600051F822306BB101EB820101F108034A686D
:104E700052684A609A4201D152684A60D168016022
:104E80007047502080F31188BFF34F8FBFF36F8FAF
:104E9000FEE70000480000204C1200201CB5264907
:104EA00008780190FF20087008788DF800009DF8C0
:104EB00000009DF8002000F0F000904207D0502044
:104EC00080F31188BFF34F8FBFF36F8FFEE79DF81C
:104ED00000001A4B00F0500018700720986005E0A1
:104EE0009DF8002052008DF80020401E9DF8002003
:104EF0001206F5D49860032807D0502080F311885B
:104F0000BFF34F8FBFF36F8FFEE74FF44070986091
:104F1000019808700A48016841F470010160016855
:104F200041F070410160FFF715FF00205860FBF76A
:104F30004FF900201CBD000000E400E09C000020B0
:104F400020ED00E010B5502080F31188BFF34F8FA3
:104F5000BFF36F8F00F072F818B104494FF0805022
:104F60000860002080F3118810BD000004ED00E00F
:104F70002DE9FF5F8346DDE90E87994616468A468E
:104F80009000FFF7B7FC05001CD05420FFF7B2FCDF
:104F9000040014D00020256384F85100CDE90240BC
:104FA000CDE900874B46324651465846FFF710FC84
:104FB0002046FFF735FB012004B0BDE8F09F2846EE
:104FC000FFF79AFE4FF0FF30F6E7F0B585B0DDE968
:104FD0000B640A9DA6B1DCB1542700972663022614
:104FE00084F85160002604AFCDE90246CDE90057B0
:104FF000FFF7EEFB2046FFF713FB049805B0F0BD6A
:10500000502080F31188BFF34F8FBFF36F8FFEE7FF
:10501000502080F31188BFF34F8FBFF36F8FFEE7EF
:105020000548C16919B1806B18B100207047012093
:105030007047022070470000480000202DE9F04131
:105040002E4C0027A06B40B1206A401C2062606A91
:1050500000B101273846BDE8F0816669761C6661BB
:1050600013D16068006838B1502080F31188BFF315
:105070004F8FBFF36F8FFEE76068A1686160A0602B
:10508000A06A401CA062FFF711FC206BDFF8708063
:10509000864209D36068006880B16068C068C568EE
:1050A000686886420DD220632068C06A00EB8001E8
:1050B00058F821000128CAD90127C8E74FF0FF306E
:1050C000F1E7281DFFF794FDA86A18B105F1180053
:1050D000FFF78EFDE86A0121A26981401143A161B9
:1050E00000EB800108EB8100291DFFF7C5FDE86A90
:1050F0002168C96A8842CDD30127CBE74800002048
:105100004C1200202DE9F0472C4D00242746A86BB7
:1051100038B1FFF7BDFDA86B401EA863A86B40B176
:1051200046E0502080F31188BFF34F8FBFF36F8F9D
:10513000FEE72969224E0120D1B3A6F1B4098046C9
:105140003068E8B1F068C46804F11800FFF750FD5A
:10515000201DFFF74DFDE06AAA6908FA00F111432E
:10516000A96100EB800109EB8100211DFFF784FD9F
:10517000E06A2968C96A8842E2D3C5F82480DFE77B
:105180000CB1FFF793FB2C6A44B14646FFF756FF7C
:1051900000B16E62641EF9D100202862686A38B1DD
:1051A0000849012738070860BFF34F8FBFF36F8F9F
:1051B000FFF78EFD3846BDE8F0870000480000206C
:1051C0000013002004ED00E010B500290AD0087893
:1051D000002807D005487844FBF74CFA002801D096
:1051E000002010BD0248784410BD00004A150000A0
:1051F0004215000010B591EA030F48BF83F0004349
:1052000000F1CE84841A71EB030C05D2121943EB22
:105210000C03001B61EB0C01DFF824E14FEA115491
:10522000A4EB135C1EEA430F18BF9EEA445F73D0E1
:1052300023EA0E03DCF1200E21EA045143F480132B
:1052400032D322FA0CFE10EB0E0023FA0CFE41EBD7
:105250000E01CCF1200E03FA0EFE10EB0E0051F100
:105260000001B1F5801FCCF1200E32D201EB0451C8
:1052700012FA0EF2BDE8104058BF7047401C38BF0C
:105280005FEA420218BF7047002814BF20F00100F7
:1052900041F100014FEA410313F5001F38BF704789
:1052A000A1F1C04100F046BB012A43EB0302ACF17F
:1052B000200CDCF11F0E32BF4FF0000E23FA0CF36E
:1052C00010EB030041EB0451B4EB115FD0D0A1EB24
:1052D000045101F5801149085FEA300001EB0451E7
:1052E0000ED350F1000038BF12FA0EFE08D1BDE80F
:1052F0001040C9E7401C38BF5FEA4202CAD1C3E789
:10530000BDE810404FEA410313F5001F38BF704756
:10531000A1F1C04100F00EBB9EEA445F08D011EA43
:105320005E0FBDE8104004BF01F00041002070474F
:10533000BDE8104070B500F0AFFA00BF64FBBE3EA0
:105340000000E0FF02494FF0000001F018B800BF74
:105350000000F87F491058BFC1F140415B1058BFB1
:10536000C3F140438B42EFF3008070472DE9C04109
:1053700030B4DFF8A0C23CEA111418BF3CEA1314A1
:1053800000F0EC8081EA03051CEA111444EAD574AC
:1053900018BF1CEA131500F0C780A4EB05044FF0FA
:1053A000004545EAC12145EAC32341EA505143EA99
:1053B000525304F17F74994204F500344FEAC0203F
:1053C0004FEAC22208BF904200F09C804FEA13656A
:1053D0000FF24016765D4FEA134506FB05F7C7F15D
:1053E000807706FB07F74FEAD737A7FB03687642BB
:1053F000C8F58038A7FB06CE38BFA8F1010807FB27
:1054000008E64FF0000EA6FB028CE6FB03CEDCF1B3
:10541000000CCEF1004E38BFAEF1010EA6FB0C58C9
:105420004FF000074FF00005E6FB0E87A1FB08C612
:10543000A0FB07CE16EB0E0645F10005E1FB076564
:1054400015F1E04E7EBFA4F580345FEA46066D415B
:1054500016F1800745F100054FEA17274FEA066667
:1054600047EA0567A6F1DE46B6F1805F4FEA1525EB
:105470001FD9384624F0010C05EBC471BCF1FE6F56
:1054800001EB0C1102D8F0BCBDE8008124425CBFE6
:1054900001F5801E9EEAC47F02D4F0BCBDE8008105
:1054A000244238D4F0BCA1F1C041BDE8004100F075
:1054B00041BA4FEAD22242EA43524FEAD323A7FB32
:1054C00002864FEAD02040EA415007FB03661EEAFD
:1054D0000E0F4FEAD12105FB026658BFA6EB00561E
:1054E000B6EB00564FEA520E4EEAC37E18EB0E0E94
:1054F00056EB530EBDD518EB02085E417F1C55F1EB
:105500000005B6E74FF480154FF000074FF0000696
:105510004FF00008ADE7F0BC4FF0000001F1C041D2
:1055200001F00041BDE8008111EA0C1F0CEA1315DF
:1055300000D00CE013EA0C1F00F025804FF00000B3
:10554000F0BC81EA030101F00041BDE80081F0BC3C
:10555000BDE8004181EA030100F0ECB9F0BCBDE810
:10556000004170B500F098F9097EFC3E00F007B8E4
:1055700081EA03014FF0000001F00041704781EA29
:10558000030100F0D7B9F0BCBDE800414FF00000C6
:1055900021497047FFFDFBF9F7F5F4F2F0EEEDEB72
:1055A000E9E8E6E4E3E1E0DEDDDBDAD8D7D5D4D321
:1055B000D1D0CFCDCCCBCAC8C7C6C5C4C2C1C0BF6D
:1055C000BEBDBCBBBAB9B8B7B6B5B4B3B2B1B0AF73
:1055D000AEADACABAAA9A8A8A7A6A5A4A3A3A2A157
:1055E000A09F9F9E9D9C9C9B9A9999989797969512
:1055F00095949393929191908F8F8E8E8D8C8C8BAE
:105600008B8A898988888787868585848483838235
:10561000828181800000FF070000F87F4FEA11536C
:10562000A3F58063D3F11E03A8BFD3F1200C08DBE0
:105630004FF0004242EAC12252EA505232FA03F0DD
:10564000704709420BD4102BC4BF0020704703F5EC
:10565000787CBCF1FF3F05D04FF0FF3070474FF032
:105660000000704770B500F017F900BF4992248020
:1056700000207047F0E710F0004248BF4042B0FA07
:1056800080F310FA03F10AD0C3F11D0303F5806320
:105690004FEA415002EB035202EBD12170474FF029
:1056A00000007047B0FA80F310FA03F10AD0C3F19A
:1056B0001D0303F580634FEA41504FEA035202EBAA
:1056C000D12170474FF000007047000051EA030CF1
:1056D00017D41CF5801F58BFBCF5801F00F1068051
:1056E000994218BF704708BF9042704707D711F51D
:1056F000801F58BF13F5801F19D499427047894203
:1057000070471CF5801F08D5BCF5801FF7D58B426C
:1057100018BF704708BF824270474FF4001C1CEB53
:10572000410F38BF1CEB430F01D28B42704770B55D
:1057300000F0B2F8922449004FF000514FF080532E
:10574000FFF708BEDFF848C170B51CEA111E1EBF86
:105750001CEA13159EEA0C0F95EA0C0F00F06F80FF
:1057600081EA030423EA4C134EEAD47E21EA4C1169
:1057700041F4801143F48013AE44A1FB024CA0FB22
:105780000365AEF17F7E361955EB0C05A1FB034C8A
:105790004CF10003A0FB021C16EB0C06654153F113
:1057A0000003094218BF46F0010613F4007F0BD135
:1057B0004FEA03314FEA0530340341EA155140EA1C
:1057C00016506FF003020AE04FEAC3214FEAC520EA
:1057D000F40241EA555140EA56506FF0020202EBE2
:1057E0002E4201EB025585EACE710AD05FEA440CE5
:1057F00018BF24F0004450F1000041F1000120EAFC
:10580000D47040F2FE7C624500D270BDA84214BF45
:105810004FF080444FF04044002E08BF0024BEF1FA
:10582000806FA8BFA1F1C041BDE8704080F28280C6
:105830004FF0000001F1C04101F0004170479EEAC5
:105840000C0F0CEA131518BF95EA0C0F06D04FF099
:10585000000081EA030E0EF0004170BD00F01CF85C
:105860008900013E00F007B800F009B84FEA430C88
:105870005FEA5C5C08D081EA030100F05BB84FEAA4
:10588000410C5FEA5C5CF6D14FF0000001497047C3
:105890000000FF070000F87F0EF1020E2EF0030E4D
:1058A0005EF8046B364205D4012A43EB030515F577
:1058B000001F12D8012841EB010C1CF5001F0CD869
:1058C0000ED14FEAD17C15F5001F0CEB4C0C0CF1FE
:1058D000020C08BF4CEBD37C04E04FF0080C01E055
:1058E0004FEAD37C0CEB4C0526FA05F606F00706CA
:1058F000B6F1040C06D20EEB860CBDE870404CF0FD
:10590000010C6047DFE80CF0090B02024FF0004188
:105910004FF00000A1F5002170BD19461046012886
:1059200051EB010418BFD4F5001484BF002001F02E
:10593000004170BD0808A0F500114FEA3101704721
:1059400053EA010C17D41CF5801F58BFBCF5801F0B
:1059500000F106808B4218BF704708BF8242704733
:1059600007D713F5801F58BF11F5801F19D48B423C
:1059700070479B4270471CF5801F08D5BCF5801FFF
:10598000F7D5994218BF704708BF904270474FF44F
:10599000001C1CEB430F38BF1CEB410F01D2994296
:1059A00070470FB40CBC03BCFFF7C1BE91EA030FF4
:1059B00010B581F000413FF525AC83F0004300F0C5
:1059C000EFB800002DE9F04101F5801CBCF5001F87
:1059D000C0F2C3804FEA115C21EA0C510CF1FD0CBE
:1059E00041F480115FEA5C0C0CF5C07C01D34000EF
:1059F00049413DA4890241EA905187028E0E0A0C6A
:105A0000A45D04FB04F602FB06F6C6F14046A4FBC7
:105A10000662F60D46EA422606FB06F4A4FB0123C5
:105A20005242C3F1404338BF5B1EA6FB0242002432
:105A3000E6FB0324D20B42EA4446A6FB0623A1FB65
:105A400002E2A3FB07E4A4184FF0000252F10002A7
:105A5000E3FB01426442C2F1404E38BFAEF1010E99
:105A6000A6FB04234FF00002E6FB0E32A2FB034626
:105A70004FF00004B61954F10004E2FB0264A1FBEC
:105A800006E6A4FB07E816EB08064FF0000858F1FD
:105A90000008E4FB01687642C8F1405838BFA8F11D
:105AA0000108A2FB06E4A3FB08E52D194FF0000452
:105AB00054F10004E2FB0854A1FB05E6A7FB04E84F
:105AC00018EB06084FF0000656F10006E1FB0486CD
:105AD00018F1200556F10006A809A8F11B08B10924
